{
	"data": {
		"bytecode": {
			"linkReferences": {},
			"object": "60806040525f600c5534801562000014575f80fd5b5060405162003cb838038062003cb883398181016040528101906200003a91906200034a565b338383815f90816200004d919062000637565b5080600190816200005f919062000637565b5050505f73ffffffffffffffffffffffffffffffffffffffff168173ffffffffffffffffffffffffffffffffffffffff1603620000d5575f6040517f1e4fbdf7000000000000000000000000000000000000000000000000000000008152600401620000cc91906200075e565b60405180910390fd5b620000e6816200010260201b60201c565b5080600b9081620000f8919062000637565b5050505062000779565b5f600a5f9054906101000a900473ffffffffffffffffffffffffffffffffffffffff16905081600a5f6101000a81548173ffffffffffffffffffffffffffffffffffffffff021916908373ffffffffffffffffffffffffffffffffffffffff1602179055508173ffffffffffffffffffffffffffffffffffffffff168173ffffffffffffffffffffffffffffffffffffffff167f8be0079c531659141344cd1fd0a4f28419497f9722a3daafe3b4186f6b6457e060405160405180910390a35050565b5f604051905090565b5f80fd5b5f80fd5b5f80fd5b5f80fd5b5f601f19601f8301169050919050565b7f4e487b71000000000000000000000000000000000000000000000000000000005f52604160045260245ffd5b6200022682620001de565b810181811067ffffffffffffffff82111715620002485762000247620001ee565b5b80604052505050565b5f6200025c620001c5565b90506200026a82826200021b565b919050565b5f67ffffffffffffffff8211156200028c576200028b620001ee565b5b6200029782620001de565b9050602081019050919050565b5f5b83811015620002c3578082015181840152602081019050620002a6565b5f8484015250505050565b5f620002e4620002de846200026f565b62000251565b905082815260208101848484011115620003035762000302620001da565b5b62000310848285620002a4565b509392505050565b5f82601f8301126200032f576200032e620001d6565b5b815162000341848260208601620002ce565b91505092915050565b5f805f60608486031215620003645762000363620001ce565b5b5f84015167ffffffffffffffff811115620003845762000383620001d2565b5b620003928682870162000318565b935050602084015167ffffffffffffffff811115620003b657620003b5620001d2565b5b620003c48682870162000318565b925050604084015167ffffffffffffffff811115620003e857620003e7620001d2565b5b620003f68682870162000318565b9150509250925092565b5f81519050919050565b7f4e487b71000000000000000000000000000000000000000000000000000000005f52602260045260245ffd5b5f60028204905060018216806200044f57607f821691505b6020821081036200046557620004646200040a565b5b50919050565b5f819050815f5260205f209050919050565b5f6020601f8301049050919050565b5f82821b905092915050565b5f60088302620004c97fffffffffffffffffffffffffffffffffffffffffffffffffffffffffffffffff826200048c565b620004d586836200048c565b95508019841693508086168417925050509392505050565b5f819050919050565b5f819050919050565b5f6200051f620005196200051384620004ed565b620004f6565b620004ed565b9050919050565b5f819050919050565b6200053a83620004ff565b62000552620005498262000526565b84845462000498565b825550505050565b5f90565b620005686200055a565b620005758184846200052f565b505050565b5b818110156200059c57620005905f826200055e565b6001810190506200057b565b5050565b601f821115620005eb57620005b5816200046b565b620005c0846200047d565b81016020851015620005d0578190505b620005e8620005df856200047d565b8301826200057a565b50505b505050565b5f82821c905092915050565b5f6200060d5f1984600802620005f0565b1980831691505092915050565b5f620006278383620005fc565b9150826002028217905092915050565b620006428262000400565b67ffffffffffffffff8111156200065e576200065d620001ee565b5b6200066a825462000437565b62000677828285620005a0565b5f60209050601f831160018114620006ad575f841562000698578287015190505b620006a485826200061a565b86555062000713565b601f198416620006bd866200046b565b5f5b82811015620006e657848901518255600182019150602085019450602081019050620006bf565b8683101562000706578489015162000702601f891682620005fc565b8355505b6001600288020188555050505b505050505050565b5f73ffffffffffffffffffffffffffffffffffffffff82169050919050565b5f62000746826200071b565b9050919050565b62000758816200073a565b82525050565b5f602082019050620007735f8301846200074d565b92915050565b61353180620007875f395ff3fe6080604052600436106101cc575f3560e01c80636352211e116100f6578063a380505411610094578063d31cc78811610063578063d31cc788146106aa578063e985e9c5146106b4578063f2fde38b146106f0578063fdef166b14610718576101cc565b8063a3805054146105e0578063b88d4fde1461061c578063c87b56dd14610644578063d0bbb0d714610680576101cc565b8063715018a6116100d0578063715018a61461054e5780638da5cb5b1461056457806395d89b411461058e578063a22cb465146105b8576101cc565b80636352211e146104ac57806364eeeb73146104e857806370a0823114610512576101cc565b806318160ddd1161016e57806333bea36b1161013d57806333bea36b146103d05780633c38ba441461040c57806342842e0e146104485780634f6ccce714610470576101cc565b806318160ddd1461031857806323b872dd146103425780632f745c591461036a5780633158357f146103a6576101cc565b80630700bfef116101aa5780630700bfef1461026057806307c7f4eb1461028a578063081812fc146102b4578063095ea7b3146102f0576101cc565b806301ffc9a7146101d057806303ee438c1461020c57806306fdde0314610236575b5f80fd5b3480156101db575f80fd5b506101f660048036038101906101f191906127fd565b610755565b6040516102039190612842565b60405180910390f35b348015610217575f80fd5b506102206107ce565b60405161022d91906128e5565b60405180910390f35b348015610241575f80fd5b5061024a61085a565b60405161025791906128e5565b60405180910390f35b34801561026b575f80fd5b506102746108e9565b604051610281919061291d565b60405180910390f35b348015610295575f80fd5b5061029e6108ef565b6040516102ab919061291d565b60405180910390f35b3480156102bf575f80fd5b506102da60048036038101906102d59190612960565b6108f4565b6040516102e791906129ca565b60405180910390f35b3480156102fb575f80fd5b5061031660048036038101906103119190612a0d565b61090f565b005b348015610323575f80fd5b5061032c610925565b604051610339919061291d565b60405180910390f35b34801561034d575f80fd5b5061036860048036038101906103639190612a4b565b610931565b005b348015610375575f80fd5b50610390600480360381019061038b9190612a0d565b610a30565b60405161039d919061291d565b60405180910390f35b3480156103b1575f80fd5b506103ba610ad4565b6040516103c79190612bd6565b60405180910390f35b3480156103db575f80fd5b506103f660048036038101906103f19190612bf0565b610b56565b604051610403919061291d565b60405180910390f35b348015610417575f80fd5b50610432600480360381019061042d9190612960565b610b81565b60405161043f919061291d565b60405180910390f35b348015610453575f80fd5b5061046e60048036038101906104699190612a4b565b610b9d565b005b34801561047b575f80fd5b5061049660048036038101906104919190612960565b610bbc565b6040516104a3919061291d565b60405180910390f35b3480156104b7575f80fd5b506104d260048036038101906104cd9190612960565b610c2e565b6040516104df91906129ca565b60405180910390f35b3480156104f3575f80fd5b506104fc610c3f565b604051610509919061291d565b60405180910390f35b34801561051d575f80fd5b5061053860048036038101906105339190612c2e565b610c44565b604051610545919061291d565b60405180910390f35b348015610559575f80fd5b50610562610cfa565b005b34801561056f575f80fd5b50610578610d0d565b60405161058591906129ca565b60405180910390f35b348015610599575f80fd5b506105a2610d35565b6040516105af91906128e5565b60405180910390f35b3480156105c3575f80fd5b506105de60048036038101906105d99190612c83565b610dc5565b005b3480156105eb575f80fd5b5061060660048036038101906106019190612960565b610ddb565b604051610613919061291d565b60405180910390f35b348015610627575f80fd5b50610642600480360381019061063d9190612ded565b610df8565b005b34801561064f575f80fd5b5061066a60048036038101906106659190612960565b610e15565b60405161067791906128e5565b60405180910390f35b34801561068b575f80fd5b50610694610e84565b6040516106a1919061291d565b60405180910390f35b6106b2610e8a565b005b3480156106bf575f80fd5b506106da60048036038101906106d59190612e6d565b611071565b6040516106e79190612842565b60405180910390f35b3480156106fb575f80fd5b5061071660048036038101906107119190612c2e565b6110ff565b005b348015610723575f80fd5b5061073e60048036038101906107399190612960565b611183565b60405161074c929190612eab565b60405180910390f35b5f7f780e9d63000000000000000000000000000000000000000000000000000000007bffffffffffffffffffffffffffffffffffffffffffffffffffffffff1916827bffffffffffffffffffffffffffffffffffffffffffffffffffffffff191614806107c757506107c6826111a3565b5b9050919050565b600b80546107db90612eff565b80601f016020809104026020016040519081016040528092919081815260200182805461080790612eff565b80156108525780601f1061082957610100808354040283529160200191610852565b820191905f5260205f20905b81548152906001019060200180831161083557829003601f168201915b505050505081565b60605f805461086890612eff565b80601f016020809104026020016040519081016040528092919081815260200182805461089490612eff565b80156108df5780601f106108b6576101008083540402835291602001916108df565b820191905f5260205f20905b8154815290600101906020018083116108c257829003601f168201915b5050505050905090565b600c5481565b600481565b5f6108fe82611284565b506109088261130a565b9050919050565b610921828261091c611343565b61134a565b5050565b5f600880549050905090565b5f73ffffffffffffffffffffffffffffffffffffffff168273ffffffffffffffffffffffffffffffffffffffff16036109a1575f6040517f64a0ae9200000000000000000000000000000000000000000000000000000000815260040161099891906129ca565b60405180910390fd5b5f6109b483836109af611343565b61135c565b90508373ffffffffffffffffffffffffffffffffffffffff168173ffffffffffffffffffffffffffffffffffffffff1614610a2a578382826040517f64283d7b000000000000000000000000000000000000000000000000000000008152600401610a2193929190612f2f565b60405180910390fd5b50505050565b5f610a3a83610c44565b8210610a7f5782826040517fa57d13dc000000000000000000000000000000000000000000000000000000008152600401610a76929190612f64565b60405180910390fd5b60065f8473ffffffffffffffffffffffffffffffffffffffff1673ffffffffffffffffffffffffffffffffffffffff1681526020019081526020015f205f8381526020019081526020015f2054905092915050565b610adc612730565b600e600480602002604051908101604052809291905f905b82821015610b4d57838260040201600480602002604051908101604052809291908260048015610b39576020028201915b815481526020019060010190808311610b25575b505050505081526020019060010190610af4565b50505050905090565b600e8260048110610b65575f80fd5b600402018160048110610b76575f80fd5b015f91509150505481565b5f600d5f8381526020019081526020015f205f01549050919050565b610bb783838360405180602001604052805f815250610df8565b505050565b5f610bc5610925565b8210610c0a575f826040517fa57d13dc000000000000000000000000000000000000000000000000000000008152600401610c01929190612f64565b60405180910390fd5b60088281548110610c1e57610c1d612f8b565b5b905f5260205f2001549050919050565b5f610c3882611284565b9050919050565b600481565b5f8073ffffffffffffffffffffffffffffffffffffffff168273ffffffffffffffffffffffffffffffffffffffff1603610cb5575f6040517f89c62b64000000000000000000000000000000000000000000000000000000008152600401610cac91906129ca565b60405180910390fd5b60035f8373ffffffffffffffffffffffffffffffffffffffff1673ffffffffffffffffffffffffffffffffffffffff1681526020019081526020015f20549050919050565b610d02611476565b610d0b5f6114fd565b565b5f600a5f9054906101000a900473ffffffffffffffffffffffffffffffffffffffff16905090565b606060018054610d4490612eff565b80601f0160208091040260200160405190810160405280929190818152602001828054610d7090612eff565b8015610dbb5780601f10610d9257610100808354040283529160200191610dbb565b820191905f5260205f20905b815481529060010190602001808311610d9e57829003601f168201915b5050505050905090565b610dd7610dd0611343565b83836115c0565b5050565b5f600d5f8381526020019081526020015f20600101549050919050565b610e03848484610931565b610e0f84848484611729565b50505050565b60605f610e34600d5f8581526020019081526020015f205f01546118db565b90505f610e54600d5f8681526020019081526020015f20600101546118db565b9050600b8282604051602001610e6c93929190613118565b60405160208183030381529060405292505050919050565b6103e881565b34600c541115610ecf576040517f08c379a0000000000000000000000000000000000000000000000000000000008152600401610ec6906131b3565b60405180910390fd5b610ed7610925565b6103e811610f1a576040517f08c379a0000000000000000000000000000000000000000000000000000000008152600401610f119061321b565b60405180910390fd5b5f6001610f25610925565b610f2f9190613266565b90505f610f3c33836119a5565b90506040518060400160405280825f015181526020018260200151815250600d5f8481526020019081526020015f205f820151815f0155602082015181600101559050506001600e6001835f0151610f949190613299565b60048110610fa557610fa4612f8b565b5b6004020160018360200151610fba9190613299565b60048110610fcb57610fca612f8b565b5b015f828254610fda9190613266565b925050819055507ff8e1a15aba9398e019f0b49df1a4fde98ee17ae345cb5f6b5e2c27f5033e8ce782604051611010919061291d565b60405180910390a1611020610d0d565b73ffffffffffffffffffffffffffffffffffffffff166108fc3490811502906040515f60405180830381858888f19350505050158015611062573d5f803e3d5ffd5b5061106d3383611c2b565b5050565b5f60055f8473ffffffffffffffffffffffffffffffffffffffff1673ffffffffffffffffffffffffffffffffffffffff1681526020019081526020015f205f8373ffffffffffffffffffffffffffffffffffffffff1673ffffffffffffffffffffffffffffffffffffffff1681526020019081526020015f205f9054906101000a900460ff16905092915050565b611107611476565b5f73ffffffffffffffffffffffffffffffffffffffff168173ffffffffffffffffffffffffffffffffffffffff1603611177575f6040517f1e4fbdf700000000000000000000000000000000000000000000000000000000815260040161116e91906129ca565b60405180910390fd5b611180816114fd565b50565b600d602052805f5260405f205f91509050805f0154908060010154905082565b5f7f80ac58cd000000000000000000000000000000000000000000000000000000007bffffffffffffffffffffffffffffffffffffffffffffffffffffffff1916827bffffffffffffffffffffffffffffffffffffffffffffffffffffffff1916148061126d57507f5b5e139f000000000000000000000000000000000000000000000000000000007bffffffffffffffffffffffffffffffffffffffffffffffffffffffff1916827bffffffffffffffffffffffffffffffffffffffffffffffffffffffff1916145b8061127d575061127c82611d1e565b5b9050919050565b5f8061128f83611d87565b90505f73ffffffffffffffffffffffffffffffffffffffff168173ffffffffffffffffffffffffffffffffffffffff160361130157826040517f7e2732890000000000000000000000000000000000000000000000000000000081526004016112f8919061291d565b60405180910390fd5b80915050919050565b5f60045f8381526020019081526020015f205f9054906101000a900473ffffffffffffffffffffffffffffffffffffffff169050919050565b5f33905090565b6113578383836001611dc0565b505050565b5f80611369858585611f7f565b90505f73ffffffffffffffffffffffffffffffffffffffff168173ffffffffffffffffffffffffffffffffffffffff16036113ac576113a78461218a565b6113eb565b8473ffffffffffffffffffffffffffffffffffffffff168173ffffffffffffffffffffffffffffffffffffffff16146113ea576113e981856121ce565b5b5b5f73ffffffffffffffffffffffffffffffffffffffff168573ffffffffffffffffffffffffffffffffffffffff160361142c5761142784612318565b61146b565b8473ffffffffffffffffffffffffffffffffffffffff168173ffffffffffffffffffffffffffffffffffffffff161461146a5761146985856123d8565b5b5b809150509392505050565b61147e611343565b73ffffffffffffffffffffffffffffffffffffffff1661149c610d0d565b73ffffffffffffffffffffffffffffffffffffffff16146114fb576114bf611343565b6040517f118cdaa70000000000000000000000000000000000000000000000000000000081526004016114f291906129ca565b60405180910390fd5b565b5f600a5f9054906101000a900473ffffffffffffffffffffffffffffffffffffffff16905081600a5f6101000a81548173ffffffffffffffffffffffffffffffffffffffff021916908373ffffffffffffffffffffffffffffffffffffffff1602179055508173ffffffffffffffffffffffffffffffffffffffff168173ffffffffffffffffffffffffffffffffffffffff167f8be0079c531659141344cd1fd0a4f28419497f9722a3daafe3b4186f6b6457e060405160405180910390a35050565b5f73ffffffffffffffffffffffffffffffffffffffff168273ffffffffffffffffffffffffffffffffffffffff160361163057816040517f5b08ba1800000000000000000000000000000000000000000000000000000000815260040161162791906129ca565b60405180910390fd5b8060055f8573ffffffffffffffffffffffffffffffffffffffff1673ffffffffffffffffffffffffffffffffffffffff1681526020019081526020015f205f8473ffffffffffffffffffffffffffffffffffffffff1673ffffffffffffffffffffffffffffffffffffffff1681526020019081526020015f205f6101000a81548160ff0219169083151502179055508173ffffffffffffffffffffffffffffffffffffffff168373ffffffffffffffffffffffffffffffffffffffff167f17307eab39ab6107e8899845ad3d59bd9653f200f220920489ca2b5937696c318360405161171c9190612842565b60405180910390a3505050565b5f8373ffffffffffffffffffffffffffffffffffffffff163b11156118d5578273ffffffffffffffffffffffffffffffffffffffff1663150b7a0261176c611343565b8685856040518563ffffffff1660e01b815260040161178e949392919061331e565b6020604051808303815f875af19250505080156117c957506040513d601f19601f820116820180604052508101906117c6919061337c565b60015b61184a573d805f81146117f7576040519150601f19603f3d011682016040523d82523d5f602084013e6117fc565b606091505b505f81510361184257836040517f64a0ae9200000000000000000000000000000000000000000000000000000000815260040161183991906129ca565b60405180910390fd5b805181602001fd5b63150b7a0260e01b7bffffffffffffffffffffffffffffffffffffffffffffffffffffffff1916817bffffffffffffffffffffffffffffffffffffffffffffffffffffffff1916146118d357836040517f64a0ae920000000000000000000000000000000000000000000000000000000081526004016118ca91906129ca565b60405180910390fd5b505b50505050565b60605f60016118e98461245c565b0190505f8167ffffffffffffffff81111561190757611906612cc9565b5b6040519080825280601f01601f1916602001820160405280156119395781602001600182028036833780820191505090505b5090505f82602001820190505b60011561199a578080600190039150507f3031323334353637383961626364656600000000000000000000000000000000600a86061a8153600a858161198f5761198e6133a7565b5b0494505f8503611946575b819350505050919050565b6119ad61275d565b5f6064424085856040516020016119c693929190613462565b604051602081830303815290604052805190602001205f1c6119e8919061349e565b90506119f261275d565b6005821015611a7e5760018203611a1d576004815f0181815250506001816020018181525050611a79565b60028203611a3f576004815f0181815250506002816020018181525050611a78565b60038203611a61576004815f0181815250506003816020018181525050611a77565b6004815f01818152505060048160200181815250505b5b5b611c20565b600d821015611b0d576007821015611aaa576003815f0181815250506001816020018181525050611b08565b6009821015611acd576003815f0181815250506002816020018181525050611b07565b600b821015611af0576003815f0181815250506003816020018181525050611b06565b6003815f01818152505060048160200181815250505b5b5b611c1f565b6025821015611b9c576013821015611b39576002815f0181815250506001816020018181525050611b97565b6019821015611b5c576002815f0181815250506002816020018181525050611b96565b601f821015611b7f576002815f0181815250506003816020018181525050611b95565b6002815f01818152505060048160200181815250505b5b5b611c1e565b6034821015611bbf576001815f0181815250506001816020018181525050611c1d565b6044821015611be2576001815f0181815250506002816020018181525050611c1c565b6054821015611c05576001815f0181815250506003816020018181525050611c1b565b6001815f01818152505060048160200181815250505b5b5b5b5b5b809250505092915050565b5f73ffffffffffffffffffffffffffffffffffffffff168273ffffffffffffffffffffffffffffffffffffffff1603611c9b575f6040517f64a0ae92000000000000000000000000000000000000000000000000000000008152600401611c9291906129ca565b60405180910390fd5b5f611ca783835f61135c565b90505f73ffffffffffffffffffffffffffffffffffffffff168173ffffffffffffffffffffffffffffffffffffffff1614611d19575f6040517f73c6ac6e000000000000000000000000000000000000000000000000000000008152600401611d1091906129ca565b60405180910390fd5b505050565b5f7f01ffc9a7000000000000000000000000000000000000000000000000000000007bffffffffffffffffffffffffffffffffffffffffffffffffffffffff1916827bffffffffffffffffffffffffffffffffffffffffffffffffffffffff1916149050919050565b5f60025f8381526020019081526020015f205f9054906101000a900473ffffffffffffffffffffffffffffffffffffffff169050919050565b8080611df857505f73ffffffffffffffffffffffffffffffffffffffff168273ffffffffffffffffffffffffffffffffffffffff1614155b15611f2a575f611e0784611284565b90505f73ffffffffffffffffffffffffffffffffffffffff168373ffffffffffffffffffffffffffffffffffffffff1614158015611e7157508273ffffffffffffffffffffffffffffffffffffffff168173ffffffffffffffffffffffffffffffffffffffff1614155b8015611e845750611e828184611071565b155b15611ec657826040517fa9fbf51f000000000000000000000000000000000000000000000000000000008152600401611ebd91906129ca565b60405180910390fd5b8115611f2857838573ffffffffffffffffffffffffffffffffffffffff168273ffffffffffffffffffffffffffffffffffffffff167f8c5be1e5ebec7d5bd14f71427d1e84f3dd0314c0f7b2291e5b200ac8c7c3b92560405160405180910390a45b505b8360045f8581526020019081526020015f205f6101000a81548173ffffffffffffffffffffffffffffffffffffffff021916908373ffffffffffffffffffffffffffffffffffffffff16021790555050505050565b5f80611f8a84611d87565b90505f73ffffffffffffffffffffffffffffffffffffffff168373ffffffffffffffffffffffffffffffffffffffff1614611fcb57611fca8184866125ad565b5b5f73ffffffffffffffffffffffffffffffffffffffff168173ffffffffffffffffffffffffffffffffffffffff16146120565761200a5f855f80611dc0565b600160035f8373ffffffffffffffffffffffffffffffffffffffff1673ffffffffffffffffffffffffffffffffffffffff1681526020019081526020015f205f82825403925050819055505b5f73ffffffffffffffffffffffffffffffffffffffff168573ffffffffffffffffffffffffffffffffffffffff16146120d557600160035f8773ffffffffffffffffffffffffffffffffffffffff1673ffffffffffffffffffffffffffffffffffffffff1681526020019081526020015f205f82825401925050819055505b8460025f8681526020019081526020015f205f6101000a81548173ffffffffffffffffffffffffffffffffffffffff021916908373ffffffffffffffffffffffffffffffffffffffff160217905550838573ffffffffffffffffffffffffffffffffffffffff168273ffffffffffffffffffffffffffffffffffffffff167fddf252ad1be2c89b69c2b068fc378daa952ba7f163c4a11628f55a4df523b3ef60405160405180910390a4809150509392505050565b60088054905060095f8381526020019081526020015f2081905550600881908060018154018082558091505060019003905f5260205f20015f909190919091505550565b5f6121d883610c44565b90505f60075f8481526020019081526020015f205490508181146122af575f60065f8673ffffffffffffffffffffffffffffffffffffffff1673ffffffffffffffffffffffffffffffffffffffff1681526020019081526020015f205f8481526020019081526020015f205490508060065f8773ffffffffffffffffffffffffffffffffffffffff1673ffffffffffffffffffffffffffffffffffffffff1681526020019081526020015f205f8481526020019081526020015f20819055508160075f8381526020019081526020015f2081905550505b60075f8481526020019081526020015f205f905560065f8573ffffffffffffffffffffffffffffffffffffffff1673ffffffffffffffffffffffffffffffffffffffff1681526020019081526020015f205f8381526020019081526020015f205f905550505050565b5f600160088054905061232b9190613299565b90505f60095f8481526020019081526020015f205490505f6008838154811061235757612356612f8b565b5b905f5260205f2001549050806008838154811061237757612376612f8b565b5b905f5260205f2001819055508160095f8381526020019081526020015f208190555060095f8581526020019081526020015f205f905560088054806123bf576123be6134ce565b5b600190038181905f5260205f20015f9055905550505050565b5f60016123e484610c44565b6123ee9190613299565b90508160065f8573ffffffffffffffffffffffffffffffffffffffff1673ffffffffffffffffffffffffffffffffffffffff1681526020019081526020015f205f8381526020019081526020015f20819055508060075f8481526020019081526020015f2081905550505050565b5f805f90507a184f03e93ff9f4daa797ed6e38ed64bf6a1f01000000000000000083106124b8577a184f03e93ff9f4daa797ed6e38ed64bf6a1f01000000000000000083816124ae576124ad6133a7565b5b0492506040810190505b6d04ee2d6d415b85acef810000000083106124f5576d04ee2d6d415b85acef810000000083816124eb576124ea6133a7565b5b0492506020810190505b662386f26fc10000831061252457662386f26fc10000838161251a576125196133a7565b5b0492506010810190505b6305f5e100831061254d576305f5e1008381612543576125426133a7565b5b0492506008810190505b6127108310612572576127108381612568576125676133a7565b5b0492506004810190505b60648310612595576064838161258b5761258a6133a7565b5b0492506002810190505b600a83106125a4576001810190505b80915050919050565b6125b8838383612670565b61266b575f73ffffffffffffffffffffffffffffffffffffffff168373ffffffffffffffffffffffffffffffffffffffff160361262c57806040517f7e273289000000000000000000000000000000000000000000000000000000008152600401612623919061291d565b60405180910390fd5b81816040517f177e802f000000000000000000000000000000000000000000000000000000008152600401612662929190612f64565b60405180910390fd5b505050565b5f8073ffffffffffffffffffffffffffffffffffffffff168373ffffffffffffffffffffffffffffffffffffffff161415801561272757508273ffffffffffffffffffffffffffffffffffffffff168473ffffffffffffffffffffffffffffffffffffffff1614806126e857506126e78484611071565b5b8061272657508273ffffffffffffffffffffffffffffffffffffffff1661270e8361130a565b73ffffffffffffffffffffffffffffffffffffffff16145b5b90509392505050565b60405180608001604052806004905b612747612775565b81526020019060019003908161273f5790505090565b60405180604001604052805f81526020015f81525090565b6040518060800160405280600490602082028036833780820191505090505090565b5f604051905090565b5f80fd5b5f80fd5b5f7fffffffff0000000000000000000000000000000000000000000000000000000082169050919050565b6127dc816127a8565b81146127e6575f80fd5b50565b5f813590506127f7816127d3565b92915050565b5f60208284031215612812576128116127a0565b5b5f61281f848285016127e9565b91505092915050565b5f8115159050919050565b61283c81612828565b82525050565b5f6020820190506128555f830184612833565b92915050565b5f81519050919050565b5f82825260208201905092915050565b5f5b83811015612892578082015181840152602081019050612877565b5f8484015250505050565b5f601f19601f8301169050919050565b5f6128b78261285b565b6128c18185612865565b93506128d1818560208601612875565b6128da8161289d565b840191505092915050565b5f6020820190508181035f8301526128fd81846128ad565b905092915050565b5f819050919050565b61291781612905565b82525050565b5f6020820190506129305f83018461290e565b92915050565b61293f81612905565b8114612949575f80fd5b50565b5f8135905061295a81612936565b92915050565b5f60208284031215612975576129746127a0565b5b5f6129828482850161294c565b91505092915050565b5f73ffffffffffffffffffffffffffffffffffffffff82169050919050565b5f6129b48261298b565b9050919050565b6129c4816129aa565b82525050565b5f6020820190506129dd5f8301846129bb565b92915050565b6129ec816129aa565b81146129f6575f80fd5b50565b5f81359050612a07816129e3565b92915050565b5f8060408385031215612a2357612a226127a0565b5b5f612a30858286016129f9565b9250506020612a418582860161294c565b9150509250929050565b5f805f60608486031215612a6257612a616127a0565b5b5f612a6f868287016129f9565b9350506020612a80868287016129f9565b9250506040612a918682870161294c565b9150509250925092565b5f60049050919050565b5f81905092915050565b5f819050919050565b5f60049050919050565b5f81905092915050565b5f819050919050565b612ade81612905565b82525050565b5f612aef8383612ad5565b60208301905092915050565b5f602082019050919050565b612b1081612ab8565b612b1a8184612ac2565b9250612b2582612acc565b805f5b83811015612b55578151612b3c8782612ae4565b9650612b4783612afb565b925050600181019050612b28565b505050505050565b5f612b688383612b07565b60808301905092915050565b5f602082019050919050565b612b8981612a9b565b612b938184612aa5565b9250612b9e82612aaf565b805f5b83811015612bce578151612bb58782612b5d565b9650612bc083612b74565b925050600181019050612ba1565b505050505050565b5f61020082019050612bea5f830184612b80565b92915050565b5f8060408385031215612c0657612c056127a0565b5b5f612c138582860161294c565b9250506020612c248582860161294c565b9150509250929050565b5f60208284031215612c4357612c426127a0565b5b5f612c50848285016129f9565b91505092915050565b612c6281612828565b8114612c6c575f80fd5b50565b5f81359050612c7d81612c59565b92915050565b5f8060408385031215612c9957612c986127a0565b5b5f612ca6858286016129f9565b9250506020612cb785828601612c6f565b9150509250929050565b5f80fd5b5f80fd5b7f4e487b71000000000000000000000000000000000000000000000000000000005f52604160045260245ffd5b612cff8261289d565b810181811067ffffffffffffffff82111715612d1e57612d1d612cc9565b5b80604052505050565b5f612d30612797565b9050612d3c8282612cf6565b919050565b5f67ffffffffffffffff821115612d5b57612d5a612cc9565b5b612d648261289d565b9050602081019050919050565b828183375f83830152505050565b5f612d91612d8c84612d41565b612d27565b905082815260208101848484011115612dad57612dac612cc5565b5b612db8848285612d71565b509392505050565b5f82601f830112612dd457612dd3612cc1565b5b8135612de4848260208601612d7f565b91505092915050565b5f805f8060808587031215612e0557612e046127a0565b5b5f612e12878288016129f9565b9450506020612e23878288016129f9565b9350506040612e348782880161294c565b925050606085013567ffffffffffffffff811115612e5557612e546127a4565b5b612e6187828801612dc0565b91505092959194509250565b5f8060408385031215612e8357612e826127a0565b5b5f612e90858286016129f9565b9250506020612ea1858286016129f9565b9150509250929050565b5f604082019050612ebe5f83018561290e565b612ecb602083018461290e565b9392505050565b7f4e487b71000000000000000000000000000000000000000000000000000000005f52602260045260245ffd5b5f6002820490506001821680612f1657607f821691505b602082108103612f2957612f28612ed2565b5b50919050565b5f606082019050612f425f8301866129bb565b612f4f602083018561290e565b612f5c60408301846129bb565b949350505050565b5f604082019050612f775f8301856129bb565b612f84602083018461290e565b9392505050565b7f4e487b71000000000000000000000000000000000000000000000000000000005f52603260045260245ffd5b5f81905092915050565b5f819050815f5260205f209050919050565b5f8154612fe081612eff565b612fea8186612fb8565b9450600182165f811461300457600181146130195761304b565b60ff198316865281151582028601935061304b565b61302285612fc2565b5f5b8381101561304357815481890152600182019150602081019050613024565b838801955050505b50505092915050565b7f2f000000000000000000000000000000000000000000000000000000000000005f82015250565b5f613088600183612fb8565b915061309382613054565b600182019050919050565b5f6130a88261285b565b6130b28185612fb8565b93506130c2818560208601612875565b80840191505092915050565b7f2e6a736f6e0000000000000000000000000000000000000000000000000000005f82015250565b5f613102600583612fb8565b915061310d826130ce565b600582019050919050565b5f6131238286612fd4565b915061312e8261307c565b915061313a828561309e565b91506131458261307c565b9150613151828461309e565b915061315c826130f6565b9150819050949350505050565b7f4e6f7420656e6f756768204574682e00000000000000000000000000000000005f82015250565b5f61319d600f83612865565b91506131a882613169565b602082019050919050565b5f6020820190508181035f8301526131ca81613191565b9050919050565b7f4e6f206d6f7265206d696e74696e6720697320706f737369626c652e000000005f82015250565b5f613205601c83612865565b9150613210826131d1565b602082019050919050565b5f6020820190508181035f830152613232816131f9565b9050919050565b7f4e487b71000000000000000000000000000000000000000000000000000000005f52601160045260245ffd5b5f61327082612905565b915061327b83612905565b925082820190508082111561329357613292613239565b5b92915050565b5f6132a382612905565b91506132ae83612905565b92508282039050818111156132c6576132c5613239565b5b92915050565b5f81519050919050565b5f82825260208201905092915050565b5f6132f0826132cc565b6132fa81856132d6565b935061330a818560208601612875565b6133138161289d565b840191505092915050565b5f6080820190506133315f8301876129bb565b61333e60208301866129bb565b61334b604083018561290e565b818103606083015261335d81846132e6565b905095945050505050565b5f81519050613376816127d3565b92915050565b5f60208284031215613391576133906127a0565b5b5f61339e84828501613368565b91505092915050565b7f4e487b71000000000000000000000000000000000000000000000000000000005f52601260045260245ffd5b5f819050919050565b5f819050919050565b6133f76133f2826133d4565b6133dd565b82525050565b5f8160601b9050919050565b5f613413826133fd565b9050919050565b5f61342482613409565b9050919050565b61343c613437826129aa565b61341a565b82525050565b5f819050919050565b61345c61345782612905565b613442565b82525050565b5f61346d82866133e6565b60208201915061347d828561342b565b60148201915061348d828461344b565b602082019150819050949350505050565b5f6134a882612905565b91506134b383612905565b9250826134c3576134c26133a7565b5b828206905092915050565b7f4e487b71000000000000000000000000000000000000000000000000000000005f52603160045260245ffdfea2646970667358221220b2b2aab3252722ec7ae4e98142f6a4004cdeb85eed3de7d833c34ddfa4a4147264736f6c63430008140033",
			"opcodes": "PUSH1 0x80 PUSH1 0x40 MSTORE PUSH0 PUSH1 0xC SSTORE CALLVALUE DUP1 ISZERO PUSH3 0x14 JUMPI PUSH0 DUP1 REVERT JUMPDEST POP PUSH1 0x40 MLOAD PUSH3 0x3CB8 CODESIZE SUB DUP1 PUSH3 0x3CB8 DUP4 CODECOPY DUP2 DUP2 ADD PUSH1 0x40 MSTORE DUP2 ADD SWAP1 PUSH3 0x3A SWAP2 SWAP1 PUSH3 0x34A JUMP JUMPDEST CALLER DUP4 DUP4 DUP2 PUSH0 SWAP1 DUP2 PUSH3 0x4D SWAP2 SWAP1 PUSH3 0x637 JUMP JUMPDEST POP DUP1 PUSH1 0x1 SWAP1 DUP2 PUSH3 0x5F SWAP2 SWAP1 PUSH3 0x637 JUMP JUMPDEST POP POP POP PUSH0 PUSH20 0xFFFFFFFFFFFFFFFFFFFFFFFFFFFFFFFFFFFFFFFF AND DUP2 PUSH20 0xFFFFFFFFFFFFFFFFFFFFFFFFFFFFFFFFFFFFFFFF AND SUB PUSH3 0xD5 JUMPI PUSH0 PUSH1 0x40 MLOAD PUSH32 0x1E4FBDF700000000000000000000000000000000000000000000000000000000 DUP2 MSTORE PUSH1 0x4 ADD PUSH3 0xCC SWAP2 SWAP1 PUSH3 0x75E JUMP JUMPDEST PUSH1 0x40 MLOAD DUP1 SWAP2 SUB SWAP1 REVERT JUMPDEST PUSH3 0xE6 DUP2 PUSH3 0x102 PUSH1 0x20 SHL PUSH1 0x20 SHR JUMP JUMPDEST POP DUP1 PUSH1 0xB SWAP1 DUP2 PUSH3 0xF8 SWAP2 SWAP1 PUSH3 0x637 JUMP JUMPDEST POP POP POP POP PUSH3 0x779 JUMP JUMPDEST PUSH0 PUSH1 0xA PUSH0 SWAP1 SLOAD SWAP1 PUSH2 0x100 EXP SWAP1 DIV PUSH20 0xFFFFFFFFFFFFFFFFFFFFFFFFFFFFFFFFFFFFFFFF AND SWAP1 POP DUP2 PUSH1 0xA PUSH0 PUSH2 0x100 EXP DUP2 SLOAD DUP2 PUSH20 0xFFFFFFFFFFFFFFFFFFFFFFFFFFFFFFFFFFFFFFFF MUL NOT AND SWAP1 DUP4 PUSH20 0xFFFFFFFFFFFFFFFFFFFFFFFFFFFFFFFFFFFFFFFF AND MUL OR SWAP1 SSTORE POP DUP2 PUSH20 0xFFFFFFFFFFFFFFFFFFFFFFFFFFFFFFFFFFFFFFFF AND DUP2 PUSH20 0xFFFFFFFFFFFFFFFFFFFFFFFFFFFFFFFFFFFFFFFF AND PUSH32 0x8BE0079C531659141344CD1FD0A4F28419497F9722A3DAAFE3B4186F6B6457E0 PUSH1 0x40 MLOAD PUSH1 0x40 MLOAD DUP1 SWAP2 SUB SWAP1 LOG3 POP POP JUMP JUMPDEST PUSH0 PUSH1 0x40 MLOAD SWAP1 POP SWAP1 JUMP JUMPDEST PUSH0 DUP1 REVERT JUMPDEST PUSH0 DUP1 REVERT JUMPDEST PUSH0 DUP1 REVERT JUMPDEST PUSH0 DUP1 REVERT JUMPDEST PUSH0 PUSH1 0x1F NOT PUSH1 0x1F DUP4 ADD AND SWAP1 POP SWAP2 SWAP1 POP JUMP JUMPDEST PUSH32 0x4E487B7100000000000000000000000000000000000000000000000000000000 PUSH0 MSTORE PUSH1 0x41 PUSH1 0x4 MSTORE PUSH1 0x24 PUSH0 REVERT JUMPDEST PUSH3 0x226 DUP3 PUSH3 0x1DE JUMP JUMPDEST DUP2 ADD DUP2 DUP2 LT PUSH8 0xFFFFFFFFFFFFFFFF DUP3 GT OR ISZERO PUSH3 0x248 JUMPI PUSH3 0x247 PUSH3 0x1EE JUMP JUMPDEST JUMPDEST DUP1 PUSH1 0x40 MSTORE POP POP POP JUMP JUMPDEST PUSH0 PUSH3 0x25C PUSH3 0x1C5 JUMP JUMPDEST SWAP1 POP PUSH3 0x26A DUP3 DUP3 PUSH3 0x21B JUMP JUMPDEST SWAP2 SWAP1 POP JUMP JUMPDEST PUSH0 PUSH8 0xFFFFFFFFFFFFFFFF DUP3 GT ISZERO PUSH3 0x28C JUMPI PUSH3 0x28B PUSH3 0x1EE JUMP JUMPDEST JUMPDEST PUSH3 0x297 DUP3 PUSH3 0x1DE JUMP JUMPDEST SWAP1 POP PUSH1 0x20 DUP2 ADD SWAP1 POP SWAP2 SWAP1 POP JUMP JUMPDEST PUSH0 JUMPDEST DUP4 DUP2 LT ISZERO PUSH3 0x2C3 JUMPI DUP1 DUP3 ADD MLOAD DUP2 DUP5 ADD MSTORE PUSH1 0x20 DUP2 ADD SWAP1 POP PUSH3 0x2A6 JUMP JUMPDEST PUSH0 DUP5 DUP5 ADD MSTORE POP POP POP POP JUMP JUMPDEST PUSH0 PUSH3 0x2E4 PUSH3 0x2DE DUP5 PUSH3 0x26F JUMP JUMPDEST PUSH3 0x251 JUMP JUMPDEST SWAP1 POP DUP3 DUP2 MSTORE PUSH1 0x20 DUP2 ADD DUP5 DUP5 DUP5 ADD GT ISZERO PUSH3 0x303 JUMPI PUSH3 0x302 PUSH3 0x1DA JUMP JUMPDEST JUMPDEST PUSH3 0x310 DUP5 DUP3 DUP6 PUSH3 0x2A4 JUMP JUMPDEST POP SWAP4 SWAP3 POP POP POP JUMP JUMPDEST PUSH0 DUP3 PUSH1 0x1F DUP4 ADD SLT PUSH3 0x32F JUMPI PUSH3 0x32E PUSH3 0x1D6 JUMP JUMPDEST JUMPDEST DUP2 MLOAD PUSH3 0x341 DUP5 DUP3 PUSH1 0x20 DUP7 ADD PUSH3 0x2CE JUMP JUMPDEST SWAP2 POP POP SWAP3 SWAP2 POP POP JUMP JUMPDEST PUSH0 DUP1 PUSH0 PUSH1 0x60 DUP5 DUP7 SUB SLT ISZERO PUSH3 0x364 JUMPI PUSH3 0x363 PUSH3 0x1CE JUMP JUMPDEST JUMPDEST PUSH0 DUP5 ADD MLOAD PUSH8 0xFFFFFFFFFFFFFFFF DUP2 GT ISZERO PUSH3 0x384 JUMPI PUSH3 0x383 PUSH3 0x1D2 JUMP JUMPDEST JUMPDEST PUSH3 0x392 DUP7 DUP3 DUP8 ADD PUSH3 0x318 JUMP JUMPDEST SWAP4 POP POP PUSH1 0x20 DUP5 ADD MLOAD PUSH8 0xFFFFFFFFFFFFFFFF DUP2 GT ISZERO PUSH3 0x3B6 JUMPI PUSH3 0x3B5 PUSH3 0x1D2 JUMP JUMPDEST JUMPDEST PUSH3 0x3C4 DUP7 DUP3 DUP8 ADD PUSH3 0x318 JUMP JUMPDEST SWAP3 POP POP PUSH1 0x40 DUP5 ADD MLOAD PUSH8 0xFFFFFFFFFFFFFFFF DUP2 GT ISZERO PUSH3 0x3E8 JUMPI PUSH3 0x3E7 PUSH3 0x1D2 JUMP JUMPDEST JUMPDEST PUSH3 0x3F6 DUP7 DUP3 DUP8 ADD PUSH3 0x318 JUMP JUMPDEST SWAP2 POP POP SWAP3 POP SWAP3 POP SWAP3 JUMP JUMPDEST PUSH0 DUP2 MLOAD SWAP1 POP SWAP2 SWAP1 POP JUMP JUMPDEST PUSH32 0x4E487B7100000000000000000000000000000000000000000000000000000000 PUSH0 MSTORE PUSH1 0x22 PUSH1 0x4 MSTORE PUSH1 0x24 PUSH0 REVERT JUMPDEST PUSH0 PUSH1 0x2 DUP3 DIV SWAP1 POP PUSH1 0x1 DUP3 AND DUP1 PUSH3 0x44F JUMPI PUSH1 0x7F DUP3 AND SWAP2 POP JUMPDEST PUSH1 0x20 DUP3 LT DUP2 SUB PUSH3 0x465 JUMPI PUSH3 0x464 PUSH3 0x40A JUMP JUMPDEST JUMPDEST POP SWAP2 SWAP1 POP JUMP JUMPDEST PUSH0 DUP2 SWAP1 POP DUP2 PUSH0 MSTORE PUSH1 0x20 PUSH0 KECCAK256 SWAP1 POP SWAP2 SWAP1 POP JUMP JUMPDEST PUSH0 PUSH1 0x20 PUSH1 0x1F DUP4 ADD DIV SWAP1 POP SWAP2 SWAP1 POP JUMP JUMPDEST PUSH0 DUP3 DUP3 SHL SWAP1 POP SWAP3 SWAP2 POP POP JUMP JUMPDEST PUSH0 PUSH1 0x8 DUP4 MUL PUSH3 0x4C9 PUSH32 0xFFFFFFFFFFFFFFFFFFFFFFFFFFFFFFFFFFFFFFFFFFFFFFFFFFFFFFFFFFFFFFFF DUP3 PUSH3 0x48C JUMP JUMPDEST PUSH3 0x4D5 DUP7 DUP4 PUSH3 0x48C JUMP JUMPDEST SWAP6 POP DUP1 NOT DUP5 AND SWAP4 POP DUP1 DUP7 AND DUP5 OR SWAP3 POP POP POP SWAP4 SWAP3 POP POP POP JUMP JUMPDEST PUSH0 DUP2 SWAP1 POP SWAP2 SWAP1 POP JUMP JUMPDEST PUSH0 DUP2 SWAP1 POP SWAP2 SWAP1 POP JUMP JUMPDEST PUSH0 PUSH3 0x51F PUSH3 0x519 PUSH3 0x513 DUP5 PUSH3 0x4ED JUMP JUMPDEST PUSH3 0x4F6 JUMP JUMPDEST PUSH3 0x4ED JUMP JUMPDEST SWAP1 POP SWAP2 SWAP1 POP JUMP JUMPDEST PUSH0 DUP2 SWAP1 POP SWAP2 SWAP1 POP JUMP JUMPDEST PUSH3 0x53A DUP4 PUSH3 0x4FF JUMP JUMPDEST PUSH3 0x552 PUSH3 0x549 DUP3 PUSH3 0x526 JUMP JUMPDEST DUP5 DUP5 SLOAD PUSH3 0x498 JUMP JUMPDEST DUP3 SSTORE POP POP POP POP JUMP JUMPDEST PUSH0 SWAP1 JUMP JUMPDEST PUSH3 0x568 PUSH3 0x55A JUMP JUMPDEST PUSH3 0x575 DUP2 DUP5 DUP5 PUSH3 0x52F JUMP JUMPDEST POP POP POP JUMP JUMPDEST JUMPDEST DUP2 DUP2 LT ISZERO PUSH3 0x59C JUMPI PUSH3 0x590 PUSH0 DUP3 PUSH3 0x55E JUMP JUMPDEST PUSH1 0x1 DUP2 ADD SWAP1 POP PUSH3 0x57B JUMP JUMPDEST POP POP JUMP JUMPDEST PUSH1 0x1F DUP3 GT ISZERO PUSH3 0x5EB JUMPI PUSH3 0x5B5 DUP2 PUSH3 0x46B JUMP JUMPDEST PUSH3 0x5C0 DUP5 PUSH3 0x47D JUMP JUMPDEST DUP2 ADD PUSH1 0x20 DUP6 LT ISZERO PUSH3 0x5D0 JUMPI DUP2 SWAP1 POP JUMPDEST PUSH3 0x5E8 PUSH3 0x5DF DUP6 PUSH3 0x47D JUMP JUMPDEST DUP4 ADD DUP3 PUSH3 0x57A JUMP JUMPDEST POP POP JUMPDEST POP POP POP JUMP JUMPDEST PUSH0 DUP3 DUP3 SHR SWAP1 POP SWAP3 SWAP2 POP POP JUMP JUMPDEST PUSH0 PUSH3 0x60D PUSH0 NOT DUP5 PUSH1 0x8 MUL PUSH3 0x5F0 JUMP JUMPDEST NOT DUP1 DUP4 AND SWAP2 POP POP SWAP3 SWAP2 POP POP JUMP JUMPDEST PUSH0 PUSH3 0x627 DUP4 DUP4 PUSH3 0x5FC JUMP JUMPDEST SWAP2 POP DUP3 PUSH1 0x2 MUL DUP3 OR SWAP1 POP SWAP3 SWAP2 POP POP JUMP JUMPDEST PUSH3 0x642 DUP3 PUSH3 0x400 JUMP JUMPDEST PUSH8 0xFFFFFFFFFFFFFFFF DUP2 GT ISZERO PUSH3 0x65E JUMPI PUSH3 0x65D PUSH3 0x1EE JUMP JUMPDEST JUMPDEST PUSH3 0x66A DUP3 SLOAD PUSH3 0x437 JUMP JUMPDEST PUSH3 0x677 DUP3 DUP3 DUP6 PUSH3 0x5A0 JUMP JUMPDEST PUSH0 PUSH1 0x20 SWAP1 POP PUSH1 0x1F DUP4 GT PUSH1 0x1 DUP2 EQ PUSH3 0x6AD JUMPI PUSH0 DUP5 ISZERO PUSH3 0x698 JUMPI DUP3 DUP8 ADD MLOAD SWAP1 POP JUMPDEST PUSH3 0x6A4 DUP6 DUP3 PUSH3 0x61A JUMP JUMPDEST DUP7 SSTORE POP PUSH3 0x713 JUMP JUMPDEST PUSH1 0x1F NOT DUP5 AND PUSH3 0x6BD DUP7 PUSH3 0x46B JUMP JUMPDEST PUSH0 JUMPDEST DUP3 DUP2 LT ISZERO PUSH3 0x6E6 JUMPI DUP5 DUP10 ADD MLOAD DUP3 SSTORE PUSH1 0x1 DUP3 ADD SWAP2 POP PUSH1 0x20 DUP6 ADD SWAP5 POP PUSH1 0x20 DUP2 ADD SWAP1 POP PUSH3 0x6BF JUMP JUMPDEST DUP7 DUP4 LT ISZERO PUSH3 0x706 JUMPI DUP5 DUP10 ADD MLOAD PUSH3 0x702 PUSH1 0x1F DUP10 AND DUP3 PUSH3 0x5FC JUMP JUMPDEST DUP4 SSTORE POP JUMPDEST PUSH1 0x1 PUSH1 0x2 DUP9 MUL ADD DUP9 SSTORE POP POP POP JUMPDEST POP POP POP POP POP POP JUMP JUMPDEST PUSH0 PUSH20 0xFFFFFFFFFFFFFFFFFFFFFFFFFFFFFFFFFFFFFFFF DUP3 AND SWAP1 POP SWAP2 SWAP1 POP JUMP JUMPDEST PUSH0 PUSH3 0x746 DUP3 PUSH3 0x71B JUMP JUMPDEST SWAP1 POP SWAP2 SWAP1 POP JUMP JUMPDEST PUSH3 0x758 DUP2 PUSH3 0x73A JUMP JUMPDEST DUP3 MSTORE POP POP JUMP JUMPDEST PUSH0 PUSH1 0x20 DUP3 ADD SWAP1 POP PUSH3 0x773 PUSH0 DUP4 ADD DUP5 PUSH3 0x74D JUMP JUMPDEST SWAP3 SWAP2 POP POP JUMP JUMPDEST PUSH2 0x3531 DUP1 PUSH3 0x787 PUSH0 CODECOPY PUSH0 RETURN INVALID PUSH1 0x80 PUSH1 0x40 MSTORE PUSH1 0x4 CALLDATASIZE LT PUSH2 0x1CC JUMPI PUSH0 CALLDATALOAD PUSH1 0xE0 SHR DUP1 PUSH4 0x6352211E GT PUSH2 0xF6 JUMPI DUP1 PUSH4 0xA3805054 GT PUSH2 0x94 JUMPI DUP1 PUSH4 0xD31CC788 GT PUSH2 0x63 JUMPI DUP1 PUSH4 0xD31CC788 EQ PUSH2 0x6AA JUMPI DUP1 PUSH4 0xE985E9C5 EQ PUSH2 0x6B4 JUMPI DUP1 PUSH4 0xF2FDE38B EQ PUSH2 0x6F0 JUMPI DUP1 PUSH4 0xFDEF166B EQ PUSH2 0x718 JUMPI PUSH2 0x1CC JUMP JUMPDEST DUP1 PUSH4 0xA3805054 EQ PUSH2 0x5E0 JUMPI DUP1 PUSH4 0xB88D4FDE EQ PUSH2 0x61C JUMPI DUP1 PUSH4 0xC87B56DD EQ PUSH2 0x644 JUMPI DUP1 PUSH4 0xD0BBB0D7 EQ PUSH2 0x680 JUMPI PUSH2 0x1CC JUMP JUMPDEST DUP1 PUSH4 0x715018A6 GT PUSH2 0xD0 JUMPI DUP1 PUSH4 0x715018A6 EQ PUSH2 0x54E JUMPI DUP1 PUSH4 0x8DA5CB5B EQ PUSH2 0x564 JUMPI DUP1 PUSH4 0x95D89B41 EQ PUSH2 0x58E JUMPI DUP1 PUSH4 0xA22CB465 EQ PUSH2 0x5B8 JUMPI PUSH2 0x1CC JUMP JUMPDEST DUP1 PUSH4 0x6352211E EQ PUSH2 0x4AC JUMPI DUP1 PUSH4 0x64EEEB73 EQ PUSH2 0x4E8 JUMPI DUP1 PUSH4 0x70A08231 EQ PUSH2 0x512 JUMPI PUSH2 0x1CC JUMP JUMPDEST DUP1 PUSH4 0x18160DDD GT PUSH2 0x16E JUMPI DUP1 PUSH4 0x33BEA36B GT PUSH2 0x13D JUMPI DUP1 PUSH4 0x33BEA36B EQ PUSH2 0x3D0 JUMPI DUP1 PUSH4 0x3C38BA44 EQ PUSH2 0x40C JUMPI DUP1 PUSH4 0x42842E0E EQ PUSH2 0x448 JUMPI DUP1 PUSH4 0x4F6CCCE7 EQ PUSH2 0x470 JUMPI PUSH2 0x1CC JUMP JUMPDEST DUP1 PUSH4 0x18160DDD EQ PUSH2 0x318 JUMPI DUP1 PUSH4 0x23B872DD EQ PUSH2 0x342 JUMPI DUP1 PUSH4 0x2F745C59 EQ PUSH2 0x36A JUMPI DUP1 PUSH4 0x3158357F EQ PUSH2 0x3A6 JUMPI PUSH2 0x1CC JUMP JUMPDEST DUP1 PUSH4 0x700BFEF GT PUSH2 0x1AA JUMPI DUP1 PUSH4 0x700BFEF EQ PUSH2 0x260 JUMPI DUP1 PUSH4 0x7C7F4EB EQ PUSH2 0x28A JUMPI DUP1 PUSH4 0x81812FC EQ PUSH2 0x2B4 JUMPI DUP1 PUSH4 0x95EA7B3 EQ PUSH2 0x2F0 JUMPI PUSH2 0x1CC JUMP JUMPDEST DUP1 PUSH4 0x1FFC9A7 EQ PUSH2 0x1D0 JUMPI DUP1 PUSH4 0x3EE438C EQ PUSH2 0x20C JUMPI DUP1 PUSH4 0x6FDDE03 EQ PUSH2 0x236 JUMPI JUMPDEST PUSH0 DUP1 REVERT JUMPDEST CALLVALUE DUP1 ISZERO PUSH2 0x1DB JUMPI PUSH0 DUP1 REVERT JUMPDEST POP PUSH2 0x1F6 PUSH1 0x4 DUP1 CALLDATASIZE SUB DUP2 ADD SWAP1 PUSH2 0x1F1 SWAP2 SWAP1 PUSH2 0x27FD JUMP JUMPDEST PUSH2 0x755 JUMP JUMPDEST PUSH1 0x40 MLOAD PUSH2 0x203 SWAP2 SWAP1 PUSH2 0x2842 JUMP JUMPDEST PUSH1 0x40 MLOAD DUP1 SWAP2 SUB SWAP1 RETURN JUMPDEST CALLVALUE DUP1 ISZERO PUSH2 0x217 JUMPI PUSH0 DUP1 REVERT JUMPDEST POP PUSH2 0x220 PUSH2 0x7CE JUMP JUMPDEST PUSH1 0x40 MLOAD PUSH2 0x22D SWAP2 SWAP1 PUSH2 0x28E5 JUMP JUMPDEST PUSH1 0x40 MLOAD DUP1 SWAP2 SUB SWAP1 RETURN JUMPDEST CALLVALUE DUP1 ISZERO PUSH2 0x241 JUMPI PUSH0 DUP1 REVERT JUMPDEST POP PUSH2 0x24A PUSH2 0x85A JUMP JUMPDEST PUSH1 0x40 MLOAD PUSH2 0x257 SWAP2 SWAP1 PUSH2 0x28E5 JUMP JUMPDEST PUSH1 0x40 MLOAD DUP1 SWAP2 SUB SWAP1 RETURN JUMPDEST CALLVALUE DUP1 ISZERO PUSH2 0x26B JUMPI PUSH0 DUP1 REVERT JUMPDEST POP PUSH2 0x274 PUSH2 0x8E9 JUMP JUMPDEST PUSH1 0x40 MLOAD PUSH2 0x281 SWAP2 SWAP1 PUSH2 0x291D JUMP JUMPDEST PUSH1 0x40 MLOAD DUP1 SWAP2 SUB SWAP1 RETURN JUMPDEST CALLVALUE DUP1 ISZERO PUSH2 0x295 JUMPI PUSH0 DUP1 REVERT JUMPDEST POP PUSH2 0x29E PUSH2 0x8EF JUMP JUMPDEST PUSH1 0x40 MLOAD PUSH2 0x2AB SWAP2 SWAP1 PUSH2 0x291D JUMP JUMPDEST PUSH1 0x40 MLOAD DUP1 SWAP2 SUB SWAP1 RETURN JUMPDEST CALLVALUE DUP1 ISZERO PUSH2 0x2BF JUMPI PUSH0 DUP1 REVERT JUMPDEST POP PUSH2 0x2DA PUSH1 0x4 DUP1 CALLDATASIZE SUB DUP2 ADD SWAP1 PUSH2 0x2D5 SWAP2 SWAP1 PUSH2 0x2960 JUMP JUMPDEST PUSH2 0x8F4 JUMP JUMPDEST PUSH1 0x40 MLOAD PUSH2 0x2E7 SWAP2 SWAP1 PUSH2 0x29CA JUMP JUMPDEST PUSH1 0x40 MLOAD DUP1 SWAP2 SUB SWAP1 RETURN JUMPDEST CALLVALUE DUP1 ISZERO PUSH2 0x2FB JUMPI PUSH0 DUP1 REVERT JUMPDEST POP PUSH2 0x316 PUSH1 0x4 DUP1 CALLDATASIZE SUB DUP2 ADD SWAP1 PUSH2 0x311 SWAP2 SWAP1 PUSH2 0x2A0D JUMP JUMPDEST PUSH2 0x90F JUMP JUMPDEST STOP JUMPDEST CALLVALUE DUP1 ISZERO PUSH2 0x323 JUMPI PUSH0 DUP1 REVERT JUMPDEST POP PUSH2 0x32C PUSH2 0x925 JUMP JUMPDEST PUSH1 0x40 MLOAD PUSH2 0x339 SWAP2 SWAP1 PUSH2 0x291D JUMP JUMPDEST PUSH1 0x40 MLOAD DUP1 SWAP2 SUB SWAP1 RETURN JUMPDEST CALLVALUE DUP1 ISZERO PUSH2 0x34D JUMPI PUSH0 DUP1 REVERT JUMPDEST POP PUSH2 0x368 PUSH1 0x4 DUP1 CALLDATASIZE SUB DUP2 ADD SWAP1 PUSH2 0x363 SWAP2 SWAP1 PUSH2 0x2A4B JUMP JUMPDEST PUSH2 0x931 JUMP JUMPDEST STOP JUMPDEST CALLVALUE DUP1 ISZERO PUSH2 0x375 JUMPI PUSH0 DUP1 REVERT JUMPDEST POP PUSH2 0x390 PUSH1 0x4 DUP1 CALLDATASIZE SUB DUP2 ADD SWAP1 PUSH2 0x38B SWAP2 SWAP1 PUSH2 0x2A0D JUMP JUMPDEST PUSH2 0xA30 JUMP JUMPDEST PUSH1 0x40 MLOAD PUSH2 0x39D SWAP2 SWAP1 PUSH2 0x291D JUMP JUMPDEST PUSH1 0x40 MLOAD DUP1 SWAP2 SUB SWAP1 RETURN JUMPDEST CALLVALUE DUP1 ISZERO PUSH2 0x3B1 JUMPI PUSH0 DUP1 REVERT JUMPDEST POP PUSH2 0x3BA PUSH2 0xAD4 JUMP JUMPDEST PUSH1 0x40 MLOAD PUSH2 0x3C7 SWAP2 SWAP1 PUSH2 0x2BD6 JUMP JUMPDEST PUSH1 0x40 MLOAD DUP1 SWAP2 SUB SWAP1 RETURN JUMPDEST CALLVALUE DUP1 ISZERO PUSH2 0x3DB JUMPI PUSH0 DUP1 REVERT JUMPDEST POP PUSH2 0x3F6 PUSH1 0x4 DUP1 CALLDATASIZE SUB DUP2 ADD SWAP1 PUSH2 0x3F1 SWAP2 SWAP1 PUSH2 0x2BF0 JUMP JUMPDEST PUSH2 0xB56 JUMP JUMPDEST PUSH1 0x40 MLOAD PUSH2 0x403 SWAP2 SWAP1 PUSH2 0x291D JUMP JUMPDEST PUSH1 0x40 MLOAD DUP1 SWAP2 SUB SWAP1 RETURN JUMPDEST CALLVALUE DUP1 ISZERO PUSH2 0x417 JUMPI PUSH0 DUP1 REVERT JUMPDEST POP PUSH2 0x432 PUSH1 0x4 DUP1 CALLDATASIZE SUB DUP2 ADD SWAP1 PUSH2 0x42D SWAP2 SWAP1 PUSH2 0x2960 JUMP JUMPDEST PUSH2 0xB81 JUMP JUMPDEST PUSH1 0x40 MLOAD PUSH2 0x43F SWAP2 SWAP1 PUSH2 0x291D JUMP JUMPDEST PUSH1 0x40 MLOAD DUP1 SWAP2 SUB SWAP1 RETURN JUMPDEST CALLVALUE DUP1 ISZERO PUSH2 0x453 JUMPI PUSH0 DUP1 REVERT JUMPDEST POP PUSH2 0x46E PUSH1 0x4 DUP1 CALLDATASIZE SUB DUP2 ADD SWAP1 PUSH2 0x469 SWAP2 SWAP1 PUSH2 0x2A4B JUMP JUMPDEST PUSH2 0xB9D JUMP JUMPDEST STOP JUMPDEST CALLVALUE DUP1 ISZERO PUSH2 0x47B JUMPI PUSH0 DUP1 REVERT JUMPDEST POP PUSH2 0x496 PUSH1 0x4 DUP1 CALLDATASIZE SUB DUP2 ADD SWAP1 PUSH2 0x491 SWAP2 SWAP1 PUSH2 0x2960 JUMP JUMPDEST PUSH2 0xBBC JUMP JUMPDEST PUSH1 0x40 MLOAD PUSH2 0x4A3 SWAP2 SWAP1 PUSH2 0x291D JUMP JUMPDEST PUSH1 0x40 MLOAD DUP1 SWAP2 SUB SWAP1 RETURN JUMPDEST CALLVALUE DUP1 ISZERO PUSH2 0x4B7 JUMPI PUSH0 DUP1 REVERT JUMPDEST POP PUSH2 0x4D2 PUSH1 0x4 DUP1 CALLDATASIZE SUB DUP2 ADD SWAP1 PUSH2 0x4CD SWAP2 SWAP1 PUSH2 0x2960 JUMP JUMPDEST PUSH2 0xC2E JUMP JUMPDEST PUSH1 0x40 MLOAD PUSH2 0x4DF SWAP2 SWAP1 PUSH2 0x29CA JUMP JUMPDEST PUSH1 0x40 MLOAD DUP1 SWAP2 SUB SWAP1 RETURN JUMPDEST CALLVALUE DUP1 ISZERO PUSH2 0x4F3 JUMPI PUSH0 DUP1 REVERT JUMPDEST POP PUSH2 0x4FC PUSH2 0xC3F JUMP JUMPDEST PUSH1 0x40 MLOAD PUSH2 0x509 SWAP2 SWAP1 PUSH2 0x291D JUMP JUMPDEST PUSH1 0x40 MLOAD DUP1 SWAP2 SUB SWAP1 RETURN JUMPDEST CALLVALUE DUP1 ISZERO PUSH2 0x51D JUMPI PUSH0 DUP1 REVERT JUMPDEST POP PUSH2 0x538 PUSH1 0x4 DUP1 CALLDATASIZE SUB DUP2 ADD SWAP1 PUSH2 0x533 SWAP2 SWAP1 PUSH2 0x2C2E JUMP JUMPDEST PUSH2 0xC44 JUMP JUMPDEST PUSH1 0x40 MLOAD PUSH2 0x545 SWAP2 SWAP1 PUSH2 0x291D JUMP JUMPDEST PUSH1 0x40 MLOAD DUP1 SWAP2 SUB SWAP1 RETURN JUMPDEST CALLVALUE DUP1 ISZERO PUSH2 0x559 JUMPI PUSH0 DUP1 REVERT JUMPDEST POP PUSH2 0x562 PUSH2 0xCFA JUMP JUMPDEST STOP JUMPDEST CALLVALUE DUP1 ISZERO PUSH2 0x56F JUMPI PUSH0 DUP1 REVERT JUMPDEST POP PUSH2 0x578 PUSH2 0xD0D JUMP JUMPDEST PUSH1 0x40 MLOAD PUSH2 0x585 SWAP2 SWAP1 PUSH2 0x29CA JUMP JUMPDEST PUSH1 0x40 MLOAD DUP1 SWAP2 SUB SWAP1 RETURN JUMPDEST CALLVALUE DUP1 ISZERO PUSH2 0x599 JUMPI PUSH0 DUP1 REVERT JUMPDEST POP PUSH2 0x5A2 PUSH2 0xD35 JUMP JUMPDEST PUSH1 0x40 MLOAD PUSH2 0x5AF SWAP2 SWAP1 PUSH2 0x28E5 JUMP JUMPDEST PUSH1 0x40 MLOAD DUP1 SWAP2 SUB SWAP1 RETURN JUMPDEST CALLVALUE DUP1 ISZERO PUSH2 0x5C3 JUMPI PUSH0 DUP1 REVERT JUMPDEST POP PUSH2 0x5DE PUSH1 0x4 DUP1 CALLDATASIZE SUB DUP2 ADD SWAP1 PUSH2 0x5D9 SWAP2 SWAP1 PUSH2 0x2C83 JUMP JUMPDEST PUSH2 0xDC5 JUMP JUMPDEST STOP JUMPDEST CALLVALUE DUP1 ISZERO PUSH2 0x5EB JUMPI PUSH0 DUP1 REVERT JUMPDEST POP PUSH2 0x606 PUSH1 0x4 DUP1 CALLDATASIZE SUB DUP2 ADD SWAP1 PUSH2 0x601 SWAP2 SWAP1 PUSH2 0x2960 JUMP JUMPDEST PUSH2 0xDDB JUMP JUMPDEST PUSH1 0x40 MLOAD PUSH2 0x613 SWAP2 SWAP1 PUSH2 0x291D JUMP JUMPDEST PUSH1 0x40 MLOAD DUP1 SWAP2 SUB SWAP1 RETURN JUMPDEST CALLVALUE DUP1 ISZERO PUSH2 0x627 JUMPI PUSH0 DUP1 REVERT JUMPDEST POP PUSH2 0x642 PUSH1 0x4 DUP1 CALLDATASIZE SUB DUP2 ADD SWAP1 PUSH2 0x63D SWAP2 SWAP1 PUSH2 0x2DED JUMP JUMPDEST PUSH2 0xDF8 JUMP JUMPDEST STOP JUMPDEST CALLVALUE DUP1 ISZERO PUSH2 0x64F JUMPI PUSH0 DUP1 REVERT JUMPDEST POP PUSH2 0x66A PUSH1 0x4 DUP1 CALLDATASIZE SUB DUP2 ADD SWAP1 PUSH2 0x665 SWAP2 SWAP1 PUSH2 0x2960 JUMP JUMPDEST PUSH2 0xE15 JUMP JUMPDEST PUSH1 0x40 MLOAD PUSH2 0x677 SWAP2 SWAP1 PUSH2 0x28E5 JUMP JUMPDEST PUSH1 0x40 MLOAD DUP1 SWAP2 SUB SWAP1 RETURN JUMPDEST CALLVALUE DUP1 ISZERO PUSH2 0x68B JUMPI PUSH0 DUP1 REVERT JUMPDEST POP PUSH2 0x694 PUSH2 0xE84 JUMP JUMPDEST PUSH1 0x40 MLOAD PUSH2 0x6A1 SWAP2 SWAP1 PUSH2 0x291D JUMP JUMPDEST PUSH1 0x40 MLOAD DUP1 SWAP2 SUB SWAP1 RETURN JUMPDEST PUSH2 0x6B2 PUSH2 0xE8A JUMP JUMPDEST STOP JUMPDEST CALLVALUE DUP1 ISZERO PUSH2 0x6BF JUMPI PUSH0 DUP1 REVERT JUMPDEST POP PUSH2 0x6DA PUSH1 0x4 DUP1 CALLDATASIZE SUB DUP2 ADD SWAP1 PUSH2 0x6D5 SWAP2 SWAP1 PUSH2 0x2E6D JUMP JUMPDEST PUSH2 0x1071 JUMP JUMPDEST PUSH1 0x40 MLOAD PUSH2 0x6E7 SWAP2 SWAP1 PUSH2 0x2842 JUMP JUMPDEST PUSH1 0x40 MLOAD DUP1 SWAP2 SUB SWAP1 RETURN JUMPDEST CALLVALUE DUP1 ISZERO PUSH2 0x6FB JUMPI PUSH0 DUP1 REVERT JUMPDEST POP PUSH2 0x716 PUSH1 0x4 DUP1 CALLDATASIZE SUB DUP2 ADD SWAP1 PUSH2 0x711 SWAP2 SWAP1 PUSH2 0x2C2E JUMP JUMPDEST PUSH2 0x10FF JUMP JUMPDEST STOP JUMPDEST CALLVALUE DUP1 ISZERO PUSH2 0x723 JUMPI PUSH0 DUP1 REVERT JUMPDEST POP PUSH2 0x73E PUSH1 0x4 DUP1 CALLDATASIZE SUB DUP2 ADD SWAP1 PUSH2 0x739 SWAP2 SWAP1 PUSH2 0x2960 JUMP JUMPDEST PUSH2 0x1183 JUMP JUMPDEST PUSH1 0x40 MLOAD PUSH2 0x74C SWAP3 SWAP2 SWAP1 PUSH2 0x2EAB JUMP JUMPDEST PUSH1 0x40 MLOAD DUP1 SWAP2 SUB SWAP1 RETURN JUMPDEST PUSH0 PUSH32 0x780E9D6300000000000000000000000000000000000000000000000000000000 PUSH28 0xFFFFFFFFFFFFFFFFFFFFFFFFFFFFFFFFFFFFFFFFFFFFFFFFFFFFFFFF NOT AND DUP3 PUSH28 0xFFFFFFFFFFFFFFFFFFFFFFFFFFFFFFFFFFFFFFFFFFFFFFFFFFFFFFFF NOT AND EQ DUP1 PUSH2 0x7C7 JUMPI POP PUSH2 0x7C6 DUP3 PUSH2 0x11A3 JUMP JUMPDEST JUMPDEST SWAP1 POP SWAP2 SWAP1 POP JUMP JUMPDEST PUSH1 0xB DUP1 SLOAD PUSH2 0x7DB SWAP1 PUSH2 0x2EFF JUMP JUMPDEST DUP1 PUSH1 0x1F ADD PUSH1 0x20 DUP1 SWAP2 DIV MUL PUSH1 0x20 ADD PUSH1 0x40 MLOAD SWAP1 DUP2 ADD PUSH1 0x40 MSTORE DUP1 SWAP3 SWAP2 SWAP1 DUP2 DUP2 MSTORE PUSH1 0x20 ADD DUP3 DUP1 SLOAD PUSH2 0x807 SWAP1 PUSH2 0x2EFF JUMP JUMPDEST DUP1 ISZERO PUSH2 0x852 JUMPI DUP1 PUSH1 0x1F LT PUSH2 0x829 JUMPI PUSH2 0x100 DUP1 DUP4 SLOAD DIV MUL DUP4 MSTORE SWAP2 PUSH1 0x20 ADD SWAP2 PUSH2 0x852 JUMP JUMPDEST DUP3 ADD SWAP2 SWAP1 PUSH0 MSTORE PUSH1 0x20 PUSH0 KECCAK256 SWAP1 JUMPDEST DUP2 SLOAD DUP2 MSTORE SWAP1 PUSH1 0x1 ADD SWAP1 PUSH1 0x20 ADD DUP1 DUP4 GT PUSH2 0x835 JUMPI DUP3 SWAP1 SUB PUSH1 0x1F AND DUP3 ADD SWAP2 JUMPDEST POP POP POP POP POP DUP2 JUMP JUMPDEST PUSH1 0x60 PUSH0 DUP1 SLOAD PUSH2 0x868 SWAP1 PUSH2 0x2EFF JUMP JUMPDEST DUP1 PUSH1 0x1F ADD PUSH1 0x20 DUP1 SWAP2 DIV MUL PUSH1 0x20 ADD PUSH1 0x40 MLOAD SWAP1 DUP2 ADD PUSH1 0x40 MSTORE DUP1 SWAP3 SWAP2 SWAP1 DUP2 DUP2 MSTORE PUSH1 0x20 ADD DUP3 DUP1 SLOAD PUSH2 0x894 SWAP1 PUSH2 0x2EFF JUMP JUMPDEST DUP1 ISZERO PUSH2 0x8DF JUMPI DUP1 PUSH1 0x1F LT PUSH2 0x8B6 JUMPI PUSH2 0x100 DUP1 DUP4 SLOAD DIV MUL DUP4 MSTORE SWAP2 PUSH1 0x20 ADD SWAP2 PUSH2 0x8DF JUMP JUMPDEST DUP3 ADD SWAP2 SWAP1 PUSH0 MSTORE PUSH1 0x20 PUSH0 KECCAK256 SWAP1 JUMPDEST DUP2 SLOAD DUP2 MSTORE SWAP1 PUSH1 0x1 ADD SWAP1 PUSH1 0x20 ADD DUP1 DUP4 GT PUSH2 0x8C2 JUMPI DUP3 SWAP1 SUB PUSH1 0x1F AND DUP3 ADD SWAP2 JUMPDEST POP POP POP POP POP SWAP1 POP SWAP1 JUMP JUMPDEST PUSH1 0xC SLOAD DUP2 JUMP JUMPDEST PUSH1 0x4 DUP2 JUMP JUMPDEST PUSH0 PUSH2 0x8FE DUP3 PUSH2 0x1284 JUMP JUMPDEST POP PUSH2 0x908 DUP3 PUSH2 0x130A JUMP JUMPDEST SWAP1 POP SWAP2 SWAP1 POP JUMP JUMPDEST PUSH2 0x921 DUP3 DUP3 PUSH2 0x91C PUSH2 0x1343 JUMP JUMPDEST PUSH2 0x134A JUMP JUMPDEST POP POP JUMP JUMPDEST PUSH0 PUSH1 0x8 DUP1 SLOAD SWAP1 POP SWAP1 POP SWAP1 JUMP JUMPDEST PUSH0 PUSH20 0xFFFFFFFFFFFFFFFFFFFFFFFFFFFFFFFFFFFFFFFF AND DUP3 PUSH20 0xFFFFFFFFFFFFFFFFFFFFFFFFFFFFFFFFFFFFFFFF AND SUB PUSH2 0x9A1 JUMPI PUSH0 PUSH1 0x40 MLOAD PUSH32 0x64A0AE9200000000000000000000000000000000000000000000000000000000 DUP2 MSTORE PUSH1 0x4 ADD PUSH2 0x998 SWAP2 SWAP1 PUSH2 0x29CA JUMP JUMPDEST PUSH1 0x40 MLOAD DUP1 SWAP2 SUB SWAP1 REVERT JUMPDEST PUSH0 PUSH2 0x9B4 DUP4 DUP4 PUSH2 0x9AF PUSH2 0x1343 JUMP JUMPDEST PUSH2 0x135C JUMP JUMPDEST SWAP1 POP DUP4 PUSH20 0xFFFFFFFFFFFFFFFFFFFFFFFFFFFFFFFFFFFFFFFF AND DUP2 PUSH20 0xFFFFFFFFFFFFFFFFFFFFFFFFFFFFFFFFFFFFFFFF AND EQ PUSH2 0xA2A JUMPI DUP4 DUP3 DUP3 PUSH1 0x40 MLOAD PUSH32 0x64283D7B00000000000000000000000000000000000000000000000000000000 DUP2 MSTORE PUSH1 0x4 ADD PUSH2 0xA21 SWAP4 SWAP3 SWAP2 SWAP1 PUSH2 0x2F2F JUMP JUMPDEST PUSH1 0x40 MLOAD DUP1 SWAP2 SUB SWAP1 REVERT JUMPDEST POP POP POP POP JUMP JUMPDEST PUSH0 PUSH2 0xA3A DUP4 PUSH2 0xC44 JUMP JUMPDEST DUP3 LT PUSH2 0xA7F JUMPI DUP3 DUP3 PUSH1 0x40 MLOAD PUSH32 0xA57D13DC00000000000000000000000000000000000000000000000000000000 DUP2 MSTORE PUSH1 0x4 ADD PUSH2 0xA76 SWAP3 SWAP2 SWAP1 PUSH2 0x2F64 JUMP JUMPDEST PUSH1 0x40 MLOAD DUP1 SWAP2 SUB SWAP1 REVERT JUMPDEST PUSH1 0x6 PUSH0 DUP5 PUSH20 0xFFFFFFFFFFFFFFFFFFFFFFFFFFFFFFFFFFFFFFFF AND PUSH20 0xFFFFFFFFFFFFFFFFFFFFFFFFFFFFFFFFFFFFFFFF AND DUP2 MSTORE PUSH1 0x20 ADD SWAP1 DUP2 MSTORE PUSH1 0x20 ADD PUSH0 KECCAK256 PUSH0 DUP4 DUP2 MSTORE PUSH1 0x20 ADD SWAP1 DUP2 MSTORE PUSH1 0x20 ADD PUSH0 KECCAK256 SLOAD SWAP1 POP SWAP3 SWAP2 POP POP JUMP JUMPDEST PUSH2 0xADC PUSH2 0x2730 JUMP JUMPDEST PUSH1 0xE PUSH1 0x4 DUP1 PUSH1 0x20 MUL PUSH1 0x40 MLOAD SWAP1 DUP2 ADD PUSH1 0x40 MSTORE DUP1 SWAP3 SWAP2 SWAP1 PUSH0 SWAP1 JUMPDEST DUP3 DUP3 LT ISZERO PUSH2 0xB4D JUMPI DUP4 DUP3 PUSH1 0x4 MUL ADD PUSH1 0x4 DUP1 PUSH1 0x20 MUL PUSH1 0x40 MLOAD SWAP1 DUP2 ADD PUSH1 0x40 MSTORE DUP1 SWAP3 SWAP2 SWAP1 DUP3 PUSH1 0x4 DUP1 ISZERO PUSH2 0xB39 JUMPI PUSH1 0x20 MUL DUP3 ADD SWAP2 JUMPDEST DUP2 SLOAD DUP2 MSTORE PUSH1 0x20 ADD SWAP1 PUSH1 0x1 ADD SWAP1 DUP1 DUP4 GT PUSH2 0xB25 JUMPI JUMPDEST POP POP POP POP POP DUP2 MSTORE PUSH1 0x20 ADD SWAP1 PUSH1 0x1 ADD SWAP1 PUSH2 0xAF4 JUMP JUMPDEST POP POP POP POP SWAP1 POP SWAP1 JUMP JUMPDEST PUSH1 0xE DUP3 PUSH1 0x4 DUP2 LT PUSH2 0xB65 JUMPI PUSH0 DUP1 REVERT JUMPDEST PUSH1 0x4 MUL ADD DUP2 PUSH1 0x4 DUP2 LT PUSH2 0xB76 JUMPI PUSH0 DUP1 REVERT JUMPDEST ADD PUSH0 SWAP2 POP SWAP2 POP POP SLOAD DUP2 JUMP JUMPDEST PUSH0 PUSH1 0xD PUSH0 DUP4 DUP2 MSTORE PUSH1 0x20 ADD SWAP1 DUP2 MSTORE PUSH1 0x20 ADD PUSH0 KECCAK256 PUSH0 ADD SLOAD SWAP1 POP SWAP2 SWAP1 POP JUMP JUMPDEST PUSH2 0xBB7 DUP4 DUP4 DUP4 PUSH1 0x40 MLOAD DUP1 PUSH1 0x20 ADD PUSH1 0x40 MSTORE DUP1 PUSH0 DUP2 MSTORE POP PUSH2 0xDF8 JUMP JUMPDEST POP POP POP JUMP JUMPDEST PUSH0 PUSH2 0xBC5 PUSH2 0x925 JUMP JUMPDEST DUP3 LT PUSH2 0xC0A JUMPI PUSH0 DUP3 PUSH1 0x40 MLOAD PUSH32 0xA57D13DC00000000000000000000000000000000000000000000000000000000 DUP2 MSTORE PUSH1 0x4 ADD PUSH2 0xC01 SWAP3 SWAP2 SWAP1 PUSH2 0x2F64 JUMP JUMPDEST PUSH1 0x40 MLOAD DUP1 SWAP2 SUB SWAP1 REVERT JUMPDEST PUSH1 0x8 DUP3 DUP2 SLOAD DUP2 LT PUSH2 0xC1E JUMPI PUSH2 0xC1D PUSH2 0x2F8B JUMP JUMPDEST JUMPDEST SWAP1 PUSH0 MSTORE PUSH1 0x20 PUSH0 KECCAK256 ADD SLOAD SWAP1 POP SWAP2 SWAP1 POP JUMP JUMPDEST PUSH0 PUSH2 0xC38 DUP3 PUSH2 0x1284 JUMP JUMPDEST SWAP1 POP SWAP2 SWAP1 POP JUMP JUMPDEST PUSH1 0x4 DUP2 JUMP JUMPDEST PUSH0 DUP1 PUSH20 0xFFFFFFFFFFFFFFFFFFFFFFFFFFFFFFFFFFFFFFFF AND DUP3 PUSH20 0xFFFFFFFFFFFFFFFFFFFFFFFFFFFFFFFFFFFFFFFF AND SUB PUSH2 0xCB5 JUMPI PUSH0 PUSH1 0x40 MLOAD PUSH32 0x89C62B6400000000000000000000000000000000000000000000000000000000 DUP2 MSTORE PUSH1 0x4 ADD PUSH2 0xCAC SWAP2 SWAP1 PUSH2 0x29CA JUMP JUMPDEST PUSH1 0x40 MLOAD DUP1 SWAP2 SUB SWAP1 REVERT JUMPDEST PUSH1 0x3 PUSH0 DUP4 PUSH20 0xFFFFFFFFFFFFFFFFFFFFFFFFFFFFFFFFFFFFFFFF AND PUSH20 0xFFFFFFFFFFFFFFFFFFFFFFFFFFFFFFFFFFFFFFFF AND DUP2 MSTORE PUSH1 0x20 ADD SWAP1 DUP2 MSTORE PUSH1 0x20 ADD PUSH0 KECCAK256 SLOAD SWAP1 POP SWAP2 SWAP1 POP JUMP JUMPDEST PUSH2 0xD02 PUSH2 0x1476 JUMP JUMPDEST PUSH2 0xD0B PUSH0 PUSH2 0x14FD JUMP JUMPDEST JUMP JUMPDEST PUSH0 PUSH1 0xA PUSH0 SWAP1 SLOAD SWAP1 PUSH2 0x100 EXP SWAP1 DIV PUSH20 0xFFFFFFFFFFFFFFFFFFFFFFFFFFFFFFFFFFFFFFFF AND SWAP1 POP SWAP1 JUMP JUMPDEST PUSH1 0x60 PUSH1 0x1 DUP1 SLOAD PUSH2 0xD44 SWAP1 PUSH2 0x2EFF JUMP JUMPDEST DUP1 PUSH1 0x1F ADD PUSH1 0x20 DUP1 SWAP2 DIV MUL PUSH1 0x20 ADD PUSH1 0x40 MLOAD SWAP1 DUP2 ADD PUSH1 0x40 MSTORE DUP1 SWAP3 SWAP2 SWAP1 DUP2 DUP2 MSTORE PUSH1 0x20 ADD DUP3 DUP1 SLOAD PUSH2 0xD70 SWAP1 PUSH2 0x2EFF JUMP JUMPDEST DUP1 ISZERO PUSH2 0xDBB JUMPI DUP1 PUSH1 0x1F LT PUSH2 0xD92 JUMPI PUSH2 0x100 DUP1 DUP4 SLOAD DIV MUL DUP4 MSTORE SWAP2 PUSH1 0x20 ADD SWAP2 PUSH2 0xDBB JUMP JUMPDEST DUP3 ADD SWAP2 SWAP1 PUSH0 MSTORE PUSH1 0x20 PUSH0 KECCAK256 SWAP1 JUMPDEST DUP2 SLOAD DUP2 MSTORE SWAP1 PUSH1 0x1 ADD SWAP1 PUSH1 0x20 ADD DUP1 DUP4 GT PUSH2 0xD9E JUMPI DUP3 SWAP1 SUB PUSH1 0x1F AND DUP3 ADD SWAP2 JUMPDEST POP POP POP POP POP SWAP1 POP SWAP1 JUMP JUMPDEST PUSH2 0xDD7 PUSH2 0xDD0 PUSH2 0x1343 JUMP JUMPDEST DUP4 DUP4 PUSH2 0x15C0 JUMP JUMPDEST POP POP JUMP JUMPDEST PUSH0 PUSH1 0xD PUSH0 DUP4 DUP2 MSTORE PUSH1 0x20 ADD SWAP1 DUP2 MSTORE PUSH1 0x20 ADD PUSH0 KECCAK256 PUSH1 0x1 ADD SLOAD SWAP1 POP SWAP2 SWAP1 POP JUMP JUMPDEST PUSH2 0xE03 DUP5 DUP5 DUP5 PUSH2 0x931 JUMP JUMPDEST PUSH2 0xE0F DUP5 DUP5 DUP5 DUP5 PUSH2 0x1729 JUMP JUMPDEST POP POP POP POP JUMP JUMPDEST PUSH1 0x60 PUSH0 PUSH2 0xE34 PUSH1 0xD PUSH0 DUP6 DUP2 MSTORE PUSH1 0x20 ADD SWAP1 DUP2 MSTORE PUSH1 0x20 ADD PUSH0 KECCAK256 PUSH0 ADD SLOAD PUSH2 0x18DB JUMP JUMPDEST SWAP1 POP PUSH0 PUSH2 0xE54 PUSH1 0xD PUSH0 DUP7 DUP2 MSTORE PUSH1 0x20 ADD SWAP1 DUP2 MSTORE PUSH1 0x20 ADD PUSH0 KECCAK256 PUSH1 0x1 ADD SLOAD PUSH2 0x18DB JUMP JUMPDEST SWAP1 POP PUSH1 0xB DUP3 DUP3 PUSH1 0x40 MLOAD PUSH1 0x20 ADD PUSH2 0xE6C SWAP4 SWAP3 SWAP2 SWAP1 PUSH2 0x3118 JUMP JUMPDEST PUSH1 0x40 MLOAD PUSH1 0x20 DUP2 DUP4 SUB SUB DUP2 MSTORE SWAP1 PUSH1 0x40 MSTORE SWAP3 POP POP POP SWAP2 SWAP1 POP JUMP JUMPDEST PUSH2 0x3E8 DUP2 JUMP JUMPDEST CALLVALUE PUSH1 0xC SLOAD GT ISZERO PUSH2 0xECF JUMPI PUSH1 0x40 MLOAD PUSH32 0x8C379A000000000000000000000000000000000000000000000000000000000 DUP2 MSTORE PUSH1 0x4 ADD PUSH2 0xEC6 SWAP1 PUSH2 0x31B3 JUMP JUMPDEST PUSH1 0x40 MLOAD DUP1 SWAP2 SUB SWAP1 REVERT JUMPDEST PUSH2 0xED7 PUSH2 0x925 JUMP JUMPDEST PUSH2 0x3E8 GT PUSH2 0xF1A JUMPI PUSH1 0x40 MLOAD PUSH32 0x8C379A000000000000000000000000000000000000000000000000000000000 DUP2 MSTORE PUSH1 0x4 ADD PUSH2 0xF11 SWAP1 PUSH2 0x321B JUMP JUMPDEST PUSH1 0x40 MLOAD DUP1 SWAP2 SUB SWAP1 REVERT JUMPDEST PUSH0 PUSH1 0x1 PUSH2 0xF25 PUSH2 0x925 JUMP JUMPDEST PUSH2 0xF2F SWAP2 SWAP1 PUSH2 0x3266 JUMP JUMPDEST SWAP1 POP PUSH0 PUSH2 0xF3C CALLER DUP4 PUSH2 0x19A5 JUMP JUMPDEST SWAP1 POP PUSH1 0x40 MLOAD DUP1 PUSH1 0x40 ADD PUSH1 0x40 MSTORE DUP1 DUP3 PUSH0 ADD MLOAD DUP2 MSTORE PUSH1 0x20 ADD DUP3 PUSH1 0x20 ADD MLOAD DUP2 MSTORE POP PUSH1 0xD PUSH0 DUP5 DUP2 MSTORE PUSH1 0x20 ADD SWAP1 DUP2 MSTORE PUSH1 0x20 ADD PUSH0 KECCAK256 PUSH0 DUP3 ADD MLOAD DUP2 PUSH0 ADD SSTORE PUSH1 0x20 DUP3 ADD MLOAD DUP2 PUSH1 0x1 ADD SSTORE SWAP1 POP POP PUSH1 0x1 PUSH1 0xE PUSH1 0x1 DUP4 PUSH0 ADD MLOAD PUSH2 0xF94 SWAP2 SWAP1 PUSH2 0x3299 JUMP JUMPDEST PUSH1 0x4 DUP2 LT PUSH2 0xFA5 JUMPI PUSH2 0xFA4 PUSH2 0x2F8B JUMP JUMPDEST JUMPDEST PUSH1 0x4 MUL ADD PUSH1 0x1 DUP4 PUSH1 0x20 ADD MLOAD PUSH2 0xFBA SWAP2 SWAP1 PUSH2 0x3299 JUMP JUMPDEST PUSH1 0x4 DUP2 LT PUSH2 0xFCB JUMPI PUSH2 0xFCA PUSH2 0x2F8B JUMP JUMPDEST JUMPDEST ADD PUSH0 DUP3 DUP3 SLOAD PUSH2 0xFDA SWAP2 SWAP1 PUSH2 0x3266 JUMP JUMPDEST SWAP3 POP POP DUP2 SWAP1 SSTORE POP PUSH32 0xF8E1A15ABA9398E019F0B49DF1A4FDE98EE17AE345CB5F6B5E2C27F5033E8CE7 DUP3 PUSH1 0x40 MLOAD PUSH2 0x1010 SWAP2 SWAP1 PUSH2 0x291D JUMP JUMPDEST PUSH1 0x40 MLOAD DUP1 SWAP2 SUB SWAP1 LOG1 PUSH2 0x1020 PUSH2 0xD0D JUMP JUMPDEST PUSH20 0xFFFFFFFFFFFFFFFFFFFFFFFFFFFFFFFFFFFFFFFF AND PUSH2 0x8FC CALLVALUE SWAP1 DUP2 ISZERO MUL SWAP1 PUSH1 0x40 MLOAD PUSH0 PUSH1 0x40 MLOAD DUP1 DUP4 SUB DUP2 DUP6 DUP9 DUP9 CALL SWAP4 POP POP POP POP ISZERO DUP1 ISZERO PUSH2 0x1062 JUMPI RETURNDATASIZE PUSH0 DUP1 RETURNDATACOPY RETURNDATASIZE PUSH0 REVERT JUMPDEST POP PUSH2 0x106D CALLER DUP4 PUSH2 0x1C2B JUMP JUMPDEST POP POP JUMP JUMPDEST PUSH0 PUSH1 0x5 PUSH0 DUP5 PUSH20 0xFFFFFFFFFFFFFFFFFFFFFFFFFFFFFFFFFFFFFFFF AND PUSH20 0xFFFFFFFFFFFFFFFFFFFFFFFFFFFFFFFFFFFFFFFF AND DUP2 MSTORE PUSH1 0x20 ADD SWAP1 DUP2 MSTORE PUSH1 0x20 ADD PUSH0 KECCAK256 PUSH0 DUP4 PUSH20 0xFFFFFFFFFFFFFFFFFFFFFFFFFFFFFFFFFFFFFFFF AND PUSH20 0xFFFFFFFFFFFFFFFFFFFFFFFFFFFFFFFFFFFFFFFF AND DUP2 MSTORE PUSH1 0x20 ADD SWAP1 DUP2 MSTORE PUSH1 0x20 ADD PUSH0 KECCAK256 PUSH0 SWAP1 SLOAD SWAP1 PUSH2 0x100 EXP SWAP1 DIV PUSH1 0xFF AND SWAP1 POP SWAP3 SWAP2 POP POP JUMP JUMPDEST PUSH2 0x1107 PUSH2 0x1476 JUMP JUMPDEST PUSH0 PUSH20 0xFFFFFFFFFFFFFFFFFFFFFFFFFFFFFFFFFFFFFFFF AND DUP2 PUSH20 0xFFFFFFFFFFFFFFFFFFFFFFFFFFFFFFFFFFFFFFFF AND SUB PUSH2 0x1177 JUMPI PUSH0 PUSH1 0x40 MLOAD PUSH32 0x1E4FBDF700000000000000000000000000000000000000000000000000000000 DUP2 MSTORE PUSH1 0x4 ADD PUSH2 0x116E SWAP2 SWAP1 PUSH2 0x29CA JUMP JUMPDEST PUSH1 0x40 MLOAD DUP1 SWAP2 SUB SWAP1 REVERT JUMPDEST PUSH2 0x1180 DUP2 PUSH2 0x14FD JUMP JUMPDEST POP JUMP JUMPDEST PUSH1 0xD PUSH1 0x20 MSTORE DUP1 PUSH0 MSTORE PUSH1 0x40 PUSH0 KECCAK256 PUSH0 SWAP2 POP SWAP1 POP DUP1 PUSH0 ADD SLOAD SWAP1 DUP1 PUSH1 0x1 ADD SLOAD SWAP1 POP DUP3 JUMP JUMPDEST PUSH0 PUSH32 0x80AC58CD00000000000000000000000000000000000000000000000000000000 PUSH28 0xFFFFFFFFFFFFFFFFFFFFFFFFFFFFFFFFFFFFFFFFFFFFFFFFFFFFFFFF NOT AND DUP3 PUSH28 0xFFFFFFFFFFFFFFFFFFFFFFFFFFFFFFFFFFFFFFFFFFFFFFFFFFFFFFFF NOT AND EQ DUP1 PUSH2 0x126D JUMPI POP PUSH32 0x5B5E139F00000000000000000000000000000000000000000000000000000000 PUSH28 0xFFFFFFFFFFFFFFFFFFFFFFFFFFFFFFFFFFFFFFFFFFFFFFFFFFFFFFFF NOT AND DUP3 PUSH28 0xFFFFFFFFFFFFFFFFFFFFFFFFFFFFFFFFFFFFFFFFFFFFFFFFFFFFFFFF NOT AND EQ JUMPDEST DUP1 PUSH2 0x127D JUMPI POP PUSH2 0x127C DUP3 PUSH2 0x1D1E JUMP JUMPDEST JUMPDEST SWAP1 POP SWAP2 SWAP1 POP JUMP JUMPDEST PUSH0 DUP1 PUSH2 0x128F DUP4 PUSH2 0x1D87 JUMP JUMPDEST SWAP1 POP PUSH0 PUSH20 0xFFFFFFFFFFFFFFFFFFFFFFFFFFFFFFFFFFFFFFFF AND DUP2 PUSH20 0xFFFFFFFFFFFFFFFFFFFFFFFFFFFFFFFFFFFFFFFF AND SUB PUSH2 0x1301 JUMPI DUP3 PUSH1 0x40 MLOAD PUSH32 0x7E27328900000000000000000000000000000000000000000000000000000000 DUP2 MSTORE PUSH1 0x4 ADD PUSH2 0x12F8 SWAP2 SWAP1 PUSH2 0x291D JUMP JUMPDEST PUSH1 0x40 MLOAD DUP1 SWAP2 SUB SWAP1 REVERT JUMPDEST DUP1 SWAP2 POP POP SWAP2 SWAP1 POP JUMP JUMPDEST PUSH0 PUSH1 0x4 PUSH0 DUP4 DUP2 MSTORE PUSH1 0x20 ADD SWAP1 DUP2 MSTORE PUSH1 0x20 ADD PUSH0 KECCAK256 PUSH0 SWAP1 SLOAD SWAP1 PUSH2 0x100 EXP SWAP1 DIV PUSH20 0xFFFFFFFFFFFFFFFFFFFFFFFFFFFFFFFFFFFFFFFF AND SWAP1 POP SWAP2 SWAP1 POP JUMP JUMPDEST PUSH0 CALLER SWAP1 POP SWAP1 JUMP JUMPDEST PUSH2 0x1357 DUP4 DUP4 DUP4 PUSH1 0x1 PUSH2 0x1DC0 JUMP JUMPDEST POP POP POP JUMP JUMPDEST PUSH0 DUP1 PUSH2 0x1369 DUP6 DUP6 DUP6 PUSH2 0x1F7F JUMP JUMPDEST SWAP1 POP PUSH0 PUSH20 0xFFFFFFFFFFFFFFFFFFFFFFFFFFFFFFFFFFFFFFFF AND DUP2 PUSH20 0xFFFFFFFFFFFFFFFFFFFFFFFFFFFFFFFFFFFFFFFF AND SUB PUSH2 0x13AC JUMPI PUSH2 0x13A7 DUP5 PUSH2 0x218A JUMP JUMPDEST PUSH2 0x13EB JUMP JUMPDEST DUP5 PUSH20 0xFFFFFFFFFFFFFFFFFFFFFFFFFFFFFFFFFFFFFFFF AND DUP2 PUSH20 0xFFFFFFFFFFFFFFFFFFFFFFFFFFFFFFFFFFFFFFFF AND EQ PUSH2 0x13EA JUMPI PUSH2 0x13E9 DUP2 DUP6 PUSH2 0x21CE JUMP JUMPDEST JUMPDEST JUMPDEST PUSH0 PUSH20 0xFFFFFFFFFFFFFFFFFFFFFFFFFFFFFFFFFFFFFFFF AND DUP6 PUSH20 0xFFFFFFFFFFFFFFFFFFFFFFFFFFFFFFFFFFFFFFFF AND SUB PUSH2 0x142C JUMPI PUSH2 0x1427 DUP5 PUSH2 0x2318 JUMP JUMPDEST PUSH2 0x146B JUMP JUMPDEST DUP5 PUSH20 0xFFFFFFFFFFFFFFFFFFFFFFFFFFFFFFFFFFFFFFFF AND DUP2 PUSH20 0xFFFFFFFFFFFFFFFFFFFFFFFFFFFFFFFFFFFFFFFF AND EQ PUSH2 0x146A JUMPI PUSH2 0x1469 DUP6 DUP6 PUSH2 0x23D8 JUMP JUMPDEST JUMPDEST JUMPDEST DUP1 SWAP2 POP POP SWAP4 SWAP3 POP POP POP JUMP JUMPDEST PUSH2 0x147E PUSH2 0x1343 JUMP JUMPDEST PUSH20 0xFFFFFFFFFFFFFFFFFFFFFFFFFFFFFFFFFFFFFFFF AND PUSH2 0x149C PUSH2 0xD0D JUMP JUMPDEST PUSH20 0xFFFFFFFFFFFFFFFFFFFFFFFFFFFFFFFFFFFFFFFF AND EQ PUSH2 0x14FB JUMPI PUSH2 0x14BF PUSH2 0x1343 JUMP JUMPDEST PUSH1 0x40 MLOAD PUSH32 0x118CDAA700000000000000000000000000000000000000000000000000000000 DUP2 MSTORE PUSH1 0x4 ADD PUSH2 0x14F2 SWAP2 SWAP1 PUSH2 0x29CA JUMP JUMPDEST PUSH1 0x40 MLOAD DUP1 SWAP2 SUB SWAP1 REVERT JUMPDEST JUMP JUMPDEST PUSH0 PUSH1 0xA PUSH0 SWAP1 SLOAD SWAP1 PUSH2 0x100 EXP SWAP1 DIV PUSH20 0xFFFFFFFFFFFFFFFFFFFFFFFFFFFFFFFFFFFFFFFF AND SWAP1 POP DUP2 PUSH1 0xA PUSH0 PUSH2 0x100 EXP DUP2 SLOAD DUP2 PUSH20 0xFFFFFFFFFFFFFFFFFFFFFFFFFFFFFFFFFFFFFFFF MUL NOT AND SWAP1 DUP4 PUSH20 0xFFFFFFFFFFFFFFFFFFFFFFFFFFFFFFFFFFFFFFFF AND MUL OR SWAP1 SSTORE POP DUP2 PUSH20 0xFFFFFFFFFFFFFFFFFFFFFFFFFFFFFFFFFFFFFFFF AND DUP2 PUSH20 0xFFFFFFFFFFFFFFFFFFFFFFFFFFFFFFFFFFFFFFFF AND PUSH32 0x8BE0079C531659141344CD1FD0A4F28419497F9722A3DAAFE3B4186F6B6457E0 PUSH1 0x40 MLOAD PUSH1 0x40 MLOAD DUP1 SWAP2 SUB SWAP1 LOG3 POP POP JUMP JUMPDEST PUSH0 PUSH20 0xFFFFFFFFFFFFFFFFFFFFFFFFFFFFFFFFFFFFFFFF AND DUP3 PUSH20 0xFFFFFFFFFFFFFFFFFFFFFFFFFFFFFFFFFFFFFFFF AND SUB PUSH2 0x1630 JUMPI DUP2 PUSH1 0x40 MLOAD PUSH32 0x5B08BA1800000000000000000000000000000000000000000000000000000000 DUP2 MSTORE PUSH1 0x4 ADD PUSH2 0x1627 SWAP2 SWAP1 PUSH2 0x29CA JUMP JUMPDEST PUSH1 0x40 MLOAD DUP1 SWAP2 SUB SWAP1 REVERT JUMPDEST DUP1 PUSH1 0x5 PUSH0 DUP6 PUSH20 0xFFFFFFFFFFFFFFFFFFFFFFFFFFFFFFFFFFFFFFFF AND PUSH20 0xFFFFFFFFFFFFFFFFFFFFFFFFFFFFFFFFFFFFFFFF AND DUP2 MSTORE PUSH1 0x20 ADD SWAP1 DUP2 MSTORE PUSH1 0x20 ADD PUSH0 KECCAK256 PUSH0 DUP5 PUSH20 0xFFFFFFFFFFFFFFFFFFFFFFFFFFFFFFFFFFFFFFFF AND PUSH20 0xFFFFFFFFFFFFFFFFFFFFFFFFFFFFFFFFFFFFFFFF AND DUP2 MSTORE PUSH1 0x20 ADD SWAP1 DUP2 MSTORE PUSH1 0x20 ADD PUSH0 KECCAK256 PUSH0 PUSH2 0x100 EXP DUP2 SLOAD DUP2 PUSH1 0xFF MUL NOT AND SWAP1 DUP4 ISZERO ISZERO MUL OR SWAP1 SSTORE POP DUP2 PUSH20 0xFFFFFFFFFFFFFFFFFFFFFFFFFFFFFFFFFFFFFFFF AND DUP4 PUSH20 0xFFFFFFFFFFFFFFFFFFFFFFFFFFFFFFFFFFFFFFFF AND PUSH32 0x17307EAB39AB6107E8899845AD3D59BD9653F200F220920489CA2B5937696C31 DUP4 PUSH1 0x40 MLOAD PUSH2 0x171C SWAP2 SWAP1 PUSH2 0x2842 JUMP JUMPDEST PUSH1 0x40 MLOAD DUP1 SWAP2 SUB SWAP1 LOG3 POP POP POP JUMP JUMPDEST PUSH0 DUP4 PUSH20 0xFFFFFFFFFFFFFFFFFFFFFFFFFFFFFFFFFFFFFFFF AND EXTCODESIZE GT ISZERO PUSH2 0x18D5 JUMPI DUP3 PUSH20 0xFFFFFFFFFFFFFFFFFFFFFFFFFFFFFFFFFFFFFFFF AND PUSH4 0x150B7A02 PUSH2 0x176C PUSH2 0x1343 JUMP JUMPDEST DUP7 DUP6 DUP6 PUSH1 0x40 MLOAD DUP6 PUSH4 0xFFFFFFFF AND PUSH1 0xE0 SHL DUP2 MSTORE PUSH1 0x4 ADD PUSH2 0x178E SWAP5 SWAP4 SWAP3 SWAP2 SWAP1 PUSH2 0x331E JUMP JUMPDEST PUSH1 0x20 PUSH1 0x40 MLOAD DUP1 DUP4 SUB DUP2 PUSH0 DUP8 GAS CALL SWAP3 POP POP POP DUP1 ISZERO PUSH2 0x17C9 JUMPI POP PUSH1 0x40 MLOAD RETURNDATASIZE PUSH1 0x1F NOT PUSH1 0x1F DUP3 ADD AND DUP3 ADD DUP1 PUSH1 0x40 MSTORE POP DUP2 ADD SWAP1 PUSH2 0x17C6 SWAP2 SWAP1 PUSH2 0x337C JUMP JUMPDEST PUSH1 0x1 JUMPDEST PUSH2 0x184A JUMPI RETURNDATASIZE DUP1 PUSH0 DUP2 EQ PUSH2 0x17F7 JUMPI PUSH1 0x40 MLOAD SWAP2 POP PUSH1 0x1F NOT PUSH1 0x3F RETURNDATASIZE ADD AND DUP3 ADD PUSH1 0x40 MSTORE RETURNDATASIZE DUP3 MSTORE RETURNDATASIZE PUSH0 PUSH1 0x20 DUP5 ADD RETURNDATACOPY PUSH2 0x17FC JUMP JUMPDEST PUSH1 0x60 SWAP2 POP JUMPDEST POP PUSH0 DUP2 MLOAD SUB PUSH2 0x1842 JUMPI DUP4 PUSH1 0x40 MLOAD PUSH32 0x64A0AE9200000000000000000000000000000000000000000000000000000000 DUP2 MSTORE PUSH1 0x4 ADD PUSH2 0x1839 SWAP2 SWAP1 PUSH2 0x29CA JUMP JUMPDEST PUSH1 0x40 MLOAD DUP1 SWAP2 SUB SWAP1 REVERT JUMPDEST DUP1 MLOAD DUP2 PUSH1 0x20 ADD REVERT JUMPDEST PUSH4 0x150B7A02 PUSH1 0xE0 SHL PUSH28 0xFFFFFFFFFFFFFFFFFFFFFFFFFFFFFFFFFFFFFFFFFFFFFFFFFFFFFFFF NOT AND DUP2 PUSH28 0xFFFFFFFFFFFFFFFFFFFFFFFFFFFFFFFFFFFFFFFFFFFFFFFFFFFFFFFF NOT AND EQ PUSH2 0x18D3 JUMPI DUP4 PUSH1 0x40 MLOAD PUSH32 0x64A0AE9200000000000000000000000000000000000000000000000000000000 DUP2 MSTORE PUSH1 0x4 ADD PUSH2 0x18CA SWAP2 SWAP1 PUSH2 0x29CA JUMP JUMPDEST PUSH1 0x40 MLOAD DUP1 SWAP2 SUB SWAP1 REVERT JUMPDEST POP JUMPDEST POP POP POP POP JUMP JUMPDEST PUSH1 0x60 PUSH0 PUSH1 0x1 PUSH2 0x18E9 DUP5 PUSH2 0x245C JUMP JUMPDEST ADD SWAP1 POP PUSH0 DUP2 PUSH8 0xFFFFFFFFFFFFFFFF DUP2 GT ISZERO PUSH2 0x1907 JUMPI PUSH2 0x1906 PUSH2 0x2CC9 JUMP JUMPDEST JUMPDEST PUSH1 0x40 MLOAD SWAP1 DUP1 DUP3 MSTORE DUP1 PUSH1 0x1F ADD PUSH1 0x1F NOT AND PUSH1 0x20 ADD DUP3 ADD PUSH1 0x40 MSTORE DUP1 ISZERO PUSH2 0x1939 JUMPI DUP2 PUSH1 0x20 ADD PUSH1 0x1 DUP3 MUL DUP1 CALLDATASIZE DUP4 CALLDATACOPY DUP1 DUP3 ADD SWAP2 POP POP SWAP1 POP JUMPDEST POP SWAP1 POP PUSH0 DUP3 PUSH1 0x20 ADD DUP3 ADD SWAP1 POP JUMPDEST PUSH1 0x1 ISZERO PUSH2 0x199A JUMPI DUP1 DUP1 PUSH1 0x1 SWAP1 SUB SWAP2 POP POP PUSH32 0x3031323334353637383961626364656600000000000000000000000000000000 PUSH1 0xA DUP7 MOD BYTE DUP2 MSTORE8 PUSH1 0xA DUP6 DUP2 PUSH2 0x198F JUMPI PUSH2 0x198E PUSH2 0x33A7 JUMP JUMPDEST JUMPDEST DIV SWAP5 POP PUSH0 DUP6 SUB PUSH2 0x1946 JUMPI JUMPDEST DUP2 SWAP4 POP POP POP POP SWAP2 SWAP1 POP JUMP JUMPDEST PUSH2 0x19AD PUSH2 0x275D JUMP JUMPDEST PUSH0 PUSH1 0x64 TIMESTAMP BLOCKHASH DUP6 DUP6 PUSH1 0x40 MLOAD PUSH1 0x20 ADD PUSH2 0x19C6 SWAP4 SWAP3 SWAP2 SWAP1 PUSH2 0x3462 JUMP JUMPDEST PUSH1 0x40 MLOAD PUSH1 0x20 DUP2 DUP4 SUB SUB DUP2 MSTORE SWAP1 PUSH1 0x40 MSTORE DUP1 MLOAD SWAP1 PUSH1 0x20 ADD KECCAK256 PUSH0 SHR PUSH2 0x19E8 SWAP2 SWAP1 PUSH2 0x349E JUMP JUMPDEST SWAP1 POP PUSH2 0x19F2 PUSH2 0x275D JUMP JUMPDEST PUSH1 0x5 DUP3 LT ISZERO PUSH2 0x1A7E JUMPI PUSH1 0x1 DUP3 SUB PUSH2 0x1A1D JUMPI PUSH1 0x4 DUP2 PUSH0 ADD DUP2 DUP2 MSTORE POP POP PUSH1 0x1 DUP2 PUSH1 0x20 ADD DUP2 DUP2 MSTORE POP POP PUSH2 0x1A79 JUMP JUMPDEST PUSH1 0x2 DUP3 SUB PUSH2 0x1A3F JUMPI PUSH1 0x4 DUP2 PUSH0 ADD DUP2 DUP2 MSTORE POP POP PUSH1 0x2 DUP2 PUSH1 0x20 ADD DUP2 DUP2 MSTORE POP POP PUSH2 0x1A78 JUMP JUMPDEST PUSH1 0x3 DUP3 SUB PUSH2 0x1A61 JUMPI PUSH1 0x4 DUP2 PUSH0 ADD DUP2 DUP2 MSTORE POP POP PUSH1 0x3 DUP2 PUSH1 0x20 ADD DUP2 DUP2 MSTORE POP POP PUSH2 0x1A77 JUMP JUMPDEST PUSH1 0x4 DUP2 PUSH0 ADD DUP2 DUP2 MSTORE POP POP PUSH1 0x4 DUP2 PUSH1 0x20 ADD DUP2 DUP2 MSTORE POP POP JUMPDEST JUMPDEST JUMPDEST PUSH2 0x1C20 JUMP JUMPDEST PUSH1 0xD DUP3 LT ISZERO PUSH2 0x1B0D JUMPI PUSH1 0x7 DUP3 LT ISZERO PUSH2 0x1AAA JUMPI PUSH1 0x3 DUP2 PUSH0 ADD DUP2 DUP2 MSTORE POP POP PUSH1 0x1 DUP2 PUSH1 0x20 ADD DUP2 DUP2 MSTORE POP POP PUSH2 0x1B08 JUMP JUMPDEST PUSH1 0x9 DUP3 LT ISZERO PUSH2 0x1ACD JUMPI PUSH1 0x3 DUP2 PUSH0 ADD DUP2 DUP2 MSTORE POP POP PUSH1 0x2 DUP2 PUSH1 0x20 ADD DUP2 DUP2 MSTORE POP POP PUSH2 0x1B07 JUMP JUMPDEST PUSH1 0xB DUP3 LT ISZERO PUSH2 0x1AF0 JUMPI PUSH1 0x3 DUP2 PUSH0 ADD DUP2 DUP2 MSTORE POP POP PUSH1 0x3 DUP2 PUSH1 0x20 ADD DUP2 DUP2 MSTORE POP POP PUSH2 0x1B06 JUMP JUMPDEST PUSH1 0x3 DUP2 PUSH0 ADD DUP2 DUP2 MSTORE POP POP PUSH1 0x4 DUP2 PUSH1 0x20 ADD DUP2 DUP2 MSTORE POP POP JUMPDEST JUMPDEST JUMPDEST PUSH2 0x1C1F JUMP JUMPDEST PUSH1 0x25 DUP3 LT ISZERO PUSH2 0x1B9C JUMPI PUSH1 0x13 DUP3 LT ISZERO PUSH2 0x1B39 JUMPI PUSH1 0x2 DUP2 PUSH0 ADD DUP2 DUP2 MSTORE POP POP PUSH1 0x1 DUP2 PUSH1 0x20 ADD DUP2 DUP2 MSTORE POP POP PUSH2 0x1B97 JUMP JUMPDEST PUSH1 0x19 DUP3 LT ISZERO PUSH2 0x1B5C JUMPI PUSH1 0x2 DUP2 PUSH0 ADD DUP2 DUP2 MSTORE POP POP PUSH1 0x2 DUP2 PUSH1 0x20 ADD DUP2 DUP2 MSTORE POP POP PUSH2 0x1B96 JUMP JUMPDEST PUSH1 0x1F DUP3 LT ISZERO PUSH2 0x1B7F JUMPI PUSH1 0x2 DUP2 PUSH0 ADD DUP2 DUP2 MSTORE POP POP PUSH1 0x3 DUP2 PUSH1 0x20 ADD DUP2 DUP2 MSTORE POP POP PUSH2 0x1B95 JUMP JUMPDEST PUSH1 0x2 DUP2 PUSH0 ADD DUP2 DUP2 MSTORE POP POP PUSH1 0x4 DUP2 PUSH1 0x20 ADD DUP2 DUP2 MSTORE POP POP JUMPDEST JUMPDEST JUMPDEST PUSH2 0x1C1E JUMP JUMPDEST PUSH1 0x34 DUP3 LT ISZERO PUSH2 0x1BBF JUMPI PUSH1 0x1 DUP2 PUSH0 ADD DUP2 DUP2 MSTORE POP POP PUSH1 0x1 DUP2 PUSH1 0x20 ADD DUP2 DUP2 MSTORE POP POP PUSH2 0x1C1D JUMP JUMPDEST PUSH1 0x44 DUP3 LT ISZERO PUSH2 0x1BE2 JUMPI PUSH1 0x1 DUP2 PUSH0 ADD DUP2 DUP2 MSTORE POP POP PUSH1 0x2 DUP2 PUSH1 0x20 ADD DUP2 DUP2 MSTORE POP POP PUSH2 0x1C1C JUMP JUMPDEST PUSH1 0x54 DUP3 LT ISZERO PUSH2 0x1C05 JUMPI PUSH1 0x1 DUP2 PUSH0 ADD DUP2 DUP2 MSTORE POP POP PUSH1 0x3 DUP2 PUSH1 0x20 ADD DUP2 DUP2 MSTORE POP POP PUSH2 0x1C1B JUMP JUMPDEST PUSH1 0x1 DUP2 PUSH0 ADD DUP2 DUP2 MSTORE POP POP PUSH1 0x4 DUP2 PUSH1 0x20 ADD DUP2 DUP2 MSTORE POP POP JUMPDEST JUMPDEST JUMPDEST JUMPDEST JUMPDEST JUMPDEST DUP1 SWAP3 POP POP POP SWAP3 SWAP2 POP POP JUMP JUMPDEST PUSH0 PUSH20 0xFFFFFFFFFFFFFFFFFFFFFFFFFFFFFFFFFFFFFFFF AND DUP3 PUSH20 0xFFFFFFFFFFFFFFFFFFFFFFFFFFFFFFFFFFFFFFFF AND SUB PUSH2 0x1C9B JUMPI PUSH0 PUSH1 0x40 MLOAD PUSH32 0x64A0AE9200000000000000000000000000000000000000000000000000000000 DUP2 MSTORE PUSH1 0x4 ADD PUSH2 0x1C92 SWAP2 SWAP1 PUSH2 0x29CA JUMP JUMPDEST PUSH1 0x40 MLOAD DUP1 SWAP2 SUB SWAP1 REVERT JUMPDEST PUSH0 PUSH2 0x1CA7 DUP4 DUP4 PUSH0 PUSH2 0x135C JUMP JUMPDEST SWAP1 POP PUSH0 PUSH20 0xFFFFFFFFFFFFFFFFFFFFFFFFFFFFFFFFFFFFFFFF AND DUP2 PUSH20 0xFFFFFFFFFFFFFFFFFFFFFFFFFFFFFFFFFFFFFFFF AND EQ PUSH2 0x1D19 JUMPI PUSH0 PUSH1 0x40 MLOAD PUSH32 0x73C6AC6E00000000000000000000000000000000000000000000000000000000 DUP2 MSTORE PUSH1 0x4 ADD PUSH2 0x1D10 SWAP2 SWAP1 PUSH2 0x29CA JUMP JUMPDEST PUSH1 0x40 MLOAD DUP1 SWAP2 SUB SWAP1 REVERT JUMPDEST POP POP POP JUMP JUMPDEST PUSH0 PUSH32 0x1FFC9A700000000000000000000000000000000000000000000000000000000 PUSH28 0xFFFFFFFFFFFFFFFFFFFFFFFFFFFFFFFFFFFFFFFFFFFFFFFFFFFFFFFF NOT AND DUP3 PUSH28 0xFFFFFFFFFFFFFFFFFFFFFFFFFFFFFFFFFFFFFFFFFFFFFFFFFFFFFFFF NOT AND EQ SWAP1 POP SWAP2 SWAP1 POP JUMP JUMPDEST PUSH0 PUSH1 0x2 PUSH0 DUP4 DUP2 MSTORE PUSH1 0x20 ADD SWAP1 DUP2 MSTORE PUSH1 0x20 ADD PUSH0 KECCAK256 PUSH0 SWAP1 SLOAD SWAP1 PUSH2 0x100 EXP SWAP1 DIV PUSH20 0xFFFFFFFFFFFFFFFFFFFFFFFFFFFFFFFFFFFFFFFF AND SWAP1 POP SWAP2 SWAP1 POP JUMP JUMPDEST DUP1 DUP1 PUSH2 0x1DF8 JUMPI POP PUSH0 PUSH20 0xFFFFFFFFFFFFFFFFFFFFFFFFFFFFFFFFFFFFFFFF AND DUP3 PUSH20 0xFFFFFFFFFFFFFFFFFFFFFFFFFFFFFFFFFFFFFFFF AND EQ ISZERO JUMPDEST ISZERO PUSH2 0x1F2A JUMPI PUSH0 PUSH2 0x1E07 DUP5 PUSH2 0x1284 JUMP JUMPDEST SWAP1 POP PUSH0 PUSH20 0xFFFFFFFFFFFFFFFFFFFFFFFFFFFFFFFFFFFFFFFF AND DUP4 PUSH20 0xFFFFFFFFFFFFFFFFFFFFFFFFFFFFFFFFFFFFFFFF AND EQ ISZERO DUP1 ISZERO PUSH2 0x1E71 JUMPI POP DUP3 PUSH20 0xFFFFFFFFFFFFFFFFFFFFFFFFFFFFFFFFFFFFFFFF AND DUP2 PUSH20 0xFFFFFFFFFFFFFFFFFFFFFFFFFFFFFFFFFFFFFFFF AND EQ ISZERO JUMPDEST DUP1 ISZERO PUSH2 0x1E84 JUMPI POP PUSH2 0x1E82 DUP2 DUP5 PUSH2 0x1071 JUMP JUMPDEST ISZERO JUMPDEST ISZERO PUSH2 0x1EC6 JUMPI DUP3 PUSH1 0x40 MLOAD PUSH32 0xA9FBF51F00000000000000000000000000000000000000000000000000000000 DUP2 MSTORE PUSH1 0x4 ADD PUSH2 0x1EBD SWAP2 SWAP1 PUSH2 0x29CA JUMP JUMPDEST PUSH1 0x40 MLOAD DUP1 SWAP2 SUB SWAP1 REVERT JUMPDEST DUP2 ISZERO PUSH2 0x1F28 JUMPI DUP4 DUP6 PUSH20 0xFFFFFFFFFFFFFFFFFFFFFFFFFFFFFFFFFFFFFFFF AND DUP3 PUSH20 0xFFFFFFFFFFFFFFFFFFFFFFFFFFFFFFFFFFFFFFFF AND PUSH32 0x8C5BE1E5EBEC7D5BD14F71427D1E84F3DD0314C0F7B2291E5B200AC8C7C3B925 PUSH1 0x40 MLOAD PUSH1 0x40 MLOAD DUP1 SWAP2 SUB SWAP1 LOG4 JUMPDEST POP JUMPDEST DUP4 PUSH1 0x4 PUSH0 DUP6 DUP2 MSTORE PUSH1 0x20 ADD SWAP1 DUP2 MSTORE PUSH1 0x20 ADD PUSH0 KECCAK256 PUSH0 PUSH2 0x100 EXP DUP2 SLOAD DUP2 PUSH20 0xFFFFFFFFFFFFFFFFFFFFFFFFFFFFFFFFFFFFFFFF MUL NOT AND SWAP1 DUP4 PUSH20 0xFFFFFFFFFFFFFFFFFFFFFFFFFFFFFFFFFFFFFFFF AND MUL OR SWAP1 SSTORE POP POP POP POP POP JUMP JUMPDEST PUSH0 DUP1 PUSH2 0x1F8A DUP5 PUSH2 0x1D87 JUMP JUMPDEST SWAP1 POP PUSH0 PUSH20 0xFFFFFFFFFFFFFFFFFFFFFFFFFFFFFFFFFFFFFFFF AND DUP4 PUSH20 0xFFFFFFFFFFFFFFFFFFFFFFFFFFFFFFFFFFFFFFFF AND EQ PUSH2 0x1FCB JUMPI PUSH2 0x1FCA DUP2 DUP5 DUP7 PUSH2 0x25AD JUMP JUMPDEST JUMPDEST PUSH0 PUSH20 0xFFFFFFFFFFFFFFFFFFFFFFFFFFFFFFFFFFFFFFFF AND DUP2 PUSH20 0xFFFFFFFFFFFFFFFFFFFFFFFFFFFFFFFFFFFFFFFF AND EQ PUSH2 0x2056 JUMPI PUSH2 0x200A PUSH0 DUP6 PUSH0 DUP1 PUSH2 0x1DC0 JUMP JUMPDEST PUSH1 0x1 PUSH1 0x3 PUSH0 DUP4 PUSH20 0xFFFFFFFFFFFFFFFFFFFFFFFFFFFFFFFFFFFFFFFF AND PUSH20 0xFFFFFFFFFFFFFFFFFFFFFFFFFFFFFFFFFFFFFFFF AND DUP2 MSTORE PUSH1 0x20 ADD SWAP1 DUP2 MSTORE PUSH1 0x20 ADD PUSH0 KECCAK256 PUSH0 DUP3 DUP3 SLOAD SUB SWAP3 POP POP DUP2 SWAP1 SSTORE POP JUMPDEST PUSH0 PUSH20 0xFFFFFFFFFFFFFFFFFFFFFFFFFFFFFFFFFFFFFFFF AND DUP6 PUSH20 0xFFFFFFFFFFFFFFFFFFFFFFFFFFFFFFFFFFFFFFFF AND EQ PUSH2 0x20D5 JUMPI PUSH1 0x1 PUSH1 0x3 PUSH0 DUP8 PUSH20 0xFFFFFFFFFFFFFFFFFFFFFFFFFFFFFFFFFFFFFFFF AND PUSH20 0xFFFFFFFFFFFFFFFFFFFFFFFFFFFFFFFFFFFFFFFF AND DUP2 MSTORE PUSH1 0x20 ADD SWAP1 DUP2 MSTORE PUSH1 0x20 ADD PUSH0 KECCAK256 PUSH0 DUP3 DUP3 SLOAD ADD SWAP3 POP POP DUP2 SWAP1 SSTORE POP JUMPDEST DUP5 PUSH1 0x2 PUSH0 DUP7 DUP2 MSTORE PUSH1 0x20 ADD SWAP1 DUP2 MSTORE PUSH1 0x20 ADD PUSH0 KECCAK256 PUSH0 PUSH2 0x100 EXP DUP2 SLOAD DUP2 PUSH20 0xFFFFFFFFFFFFFFFFFFFFFFFFFFFFFFFFFFFFFFFF MUL NOT AND SWAP1 DUP4 PUSH20 0xFFFFFFFFFFFFFFFFFFFFFFFFFFFFFFFFFFFFFFFF AND MUL OR SWAP1 SSTORE POP DUP4 DUP6 PUSH20 0xFFFFFFFFFFFFFFFFFFFFFFFFFFFFFFFFFFFFFFFF AND DUP3 PUSH20 0xFFFFFFFFFFFFFFFFFFFFFFFFFFFFFFFFFFFFFFFF AND PUSH32 0xDDF252AD1BE2C89B69C2B068FC378DAA952BA7F163C4A11628F55A4DF523B3EF PUSH1 0x40 MLOAD PUSH1 0x40 MLOAD DUP1 SWAP2 SUB SWAP1 LOG4 DUP1 SWAP2 POP POP SWAP4 SWAP3 POP POP POP JUMP JUMPDEST PUSH1 0x8 DUP1 SLOAD SWAP1 POP PUSH1 0x9 PUSH0 DUP4 DUP2 MSTORE PUSH1 0x20 ADD SWAP1 DUP2 MSTORE PUSH1 0x20 ADD PUSH0 KECCAK256 DUP2 SWAP1 SSTORE POP PUSH1 0x8 DUP2 SWAP1 DUP1 PUSH1 0x1 DUP2 SLOAD ADD DUP1 DUP3 SSTORE DUP1 SWAP2 POP POP PUSH1 0x1 SWAP1 SUB SWAP1 PUSH0 MSTORE PUSH1 0x20 PUSH0 KECCAK256 ADD PUSH0 SWAP1 SWAP2 SWAP1 SWAP2 SWAP1 SWAP2 POP SSTORE POP JUMP JUMPDEST PUSH0 PUSH2 0x21D8 DUP4 PUSH2 0xC44 JUMP JUMPDEST SWAP1 POP PUSH0 PUSH1 0x7 PUSH0 DUP5 DUP2 MSTORE PUSH1 0x20 ADD SWAP1 DUP2 MSTORE PUSH1 0x20 ADD PUSH0 KECCAK256 SLOAD SWAP1 POP DUP2 DUP2 EQ PUSH2 0x22AF JUMPI PUSH0 PUSH1 0x6 PUSH0 DUP7 PUSH20 0xFFFFFFFFFFFFFFFFFFFFFFFFFFFFFFFFFFFFFFFF AND PUSH20 0xFFFFFFFFFFFFFFFFFFFFFFFFFFFFFFFFFFFFFFFF AND DUP2 MSTORE PUSH1 0x20 ADD SWAP1 DUP2 MSTORE PUSH1 0x20 ADD PUSH0 KECCAK256 PUSH0 DUP5 DUP2 MSTORE PUSH1 0x20 ADD SWAP1 DUP2 MSTORE PUSH1 0x20 ADD PUSH0 KECCAK256 SLOAD SWAP1 POP DUP1 PUSH1 0x6 PUSH0 DUP8 PUSH20 0xFFFFFFFFFFFFFFFFFFFFFFFFFFFFFFFFFFFFFFFF AND PUSH20 0xFFFFFFFFFFFFFFFFFFFFFFFFFFFFFFFFFFFFFFFF AND DUP2 MSTORE PUSH1 0x20 ADD SWAP1 DUP2 MSTORE PUSH1 0x20 ADD PUSH0 KECCAK256 PUSH0 DUP5 DUP2 MSTORE PUSH1 0x20 ADD SWAP1 DUP2 MSTORE PUSH1 0x20 ADD PUSH0 KECCAK256 DUP2 SWAP1 SSTORE POP DUP2 PUSH1 0x7 PUSH0 DUP4 DUP2 MSTORE PUSH1 0x20 ADD SWAP1 DUP2 MSTORE PUSH1 0x20 ADD PUSH0 KECCAK256 DUP2 SWAP1 SSTORE POP POP JUMPDEST PUSH1 0x7 PUSH0 DUP5 DUP2 MSTORE PUSH1 0x20 ADD SWAP1 DUP2 MSTORE PUSH1 0x20 ADD PUSH0 KECCAK256 PUSH0 SWAP1 SSTORE PUSH1 0x6 PUSH0 DUP6 PUSH20 0xFFFFFFFFFFFFFFFFFFFFFFFFFFFFFFFFFFFFFFFF AND PUSH20 0xFFFFFFFFFFFFFFFFFFFFFFFFFFFFFFFFFFFFFFFF AND DUP2 MSTORE PUSH1 0x20 ADD SWAP1 DUP2 MSTORE PUSH1 0x20 ADD PUSH0 KECCAK256 PUSH0 DUP4 DUP2 MSTORE PUSH1 0x20 ADD SWAP1 DUP2 MSTORE PUSH1 0x20 ADD PUSH0 KECCAK256 PUSH0 SWAP1 SSTORE POP POP POP POP JUMP JUMPDEST PUSH0 PUSH1 0x1 PUSH1 0x8 DUP1 SLOAD SWAP1 POP PUSH2 0x232B SWAP2 SWAP1 PUSH2 0x3299 JUMP JUMPDEST SWAP1 POP PUSH0 PUSH1 0x9 PUSH0 DUP5 DUP2 MSTORE PUSH1 0x20 ADD SWAP1 DUP2 MSTORE PUSH1 0x20 ADD PUSH0 KECCAK256 SLOAD SWAP1 POP PUSH0 PUSH1 0x8 DUP4 DUP2 SLOAD DUP2 LT PUSH2 0x2357 JUMPI PUSH2 0x2356 PUSH2 0x2F8B JUMP JUMPDEST JUMPDEST SWAP1 PUSH0 MSTORE PUSH1 0x20 PUSH0 KECCAK256 ADD SLOAD SWAP1 POP DUP1 PUSH1 0x8 DUP4 DUP2 SLOAD DUP2 LT PUSH2 0x2377 JUMPI PUSH2 0x2376 PUSH2 0x2F8B JUMP JUMPDEST JUMPDEST SWAP1 PUSH0 MSTORE PUSH1 0x20 PUSH0 KECCAK256 ADD DUP2 SWAP1 SSTORE POP DUP2 PUSH1 0x9 PUSH0 DUP4 DUP2 MSTORE PUSH1 0x20 ADD SWAP1 DUP2 MSTORE PUSH1 0x20 ADD PUSH0 KECCAK256 DUP2 SWAP1 SSTORE POP PUSH1 0x9 PUSH0 DUP6 DUP2 MSTORE PUSH1 0x20 ADD SWAP1 DUP2 MSTORE PUSH1 0x20 ADD PUSH0 KECCAK256 PUSH0 SWAP1 SSTORE PUSH1 0x8 DUP1 SLOAD DUP1 PUSH2 0x23BF JUMPI PUSH2 0x23BE PUSH2 0x34CE JUMP JUMPDEST JUMPDEST PUSH1 0x1 SWAP1 SUB DUP2 DUP2 SWAP1 PUSH0 MSTORE PUSH1 0x20 PUSH0 KECCAK256 ADD PUSH0 SWAP1 SSTORE SWAP1 SSTORE POP POP POP POP JUMP JUMPDEST PUSH0 PUSH1 0x1 PUSH2 0x23E4 DUP5 PUSH2 0xC44 JUMP JUMPDEST PUSH2 0x23EE SWAP2 SWAP1 PUSH2 0x3299 JUMP JUMPDEST SWAP1 POP DUP2 PUSH1 0x6 PUSH0 DUP6 PUSH20 0xFFFFFFFFFFFFFFFFFFFFFFFFFFFFFFFFFFFFFFFF AND PUSH20 0xFFFFFFFFFFFFFFFFFFFFFFFFFFFFFFFFFFFFFFFF AND DUP2 MSTORE PUSH1 0x20 ADD SWAP1 DUP2 MSTORE PUSH1 0x20 ADD PUSH0 KECCAK256 PUSH0 DUP4 DUP2 MSTORE PUSH1 0x20 ADD SWAP1 DUP2 MSTORE PUSH1 0x20 ADD PUSH0 KECCAK256 DUP2 SWAP1 SSTORE POP DUP1 PUSH1 0x7 PUSH0 DUP5 DUP2 MSTORE PUSH1 0x20 ADD SWAP1 DUP2 MSTORE PUSH1 0x20 ADD PUSH0 KECCAK256 DUP2 SWAP1 SSTORE POP POP POP POP JUMP JUMPDEST PUSH0 DUP1 PUSH0 SWAP1 POP PUSH27 0x184F03E93FF9F4DAA797ED6E38ED64BF6A1F010000000000000000 DUP4 LT PUSH2 0x24B8 JUMPI PUSH27 0x184F03E93FF9F4DAA797ED6E38ED64BF6A1F010000000000000000 DUP4 DUP2 PUSH2 0x24AE JUMPI PUSH2 0x24AD PUSH2 0x33A7 JUMP JUMPDEST JUMPDEST DIV SWAP3 POP PUSH1 0x40 DUP2 ADD SWAP1 POP JUMPDEST PUSH14 0x4EE2D6D415B85ACEF8100000000 DUP4 LT PUSH2 0x24F5 JUMPI PUSH14 0x4EE2D6D415B85ACEF8100000000 DUP4 DUP2 PUSH2 0x24EB JUMPI PUSH2 0x24EA PUSH2 0x33A7 JUMP JUMPDEST JUMPDEST DIV SWAP3 POP PUSH1 0x20 DUP2 ADD SWAP1 POP JUMPDEST PUSH7 0x2386F26FC10000 DUP4 LT PUSH2 0x2524 JUMPI PUSH7 0x2386F26FC10000 DUP4 DUP2 PUSH2 0x251A JUMPI PUSH2 0x2519 PUSH2 0x33A7 JUMP JUMPDEST JUMPDEST DIV SWAP3 POP PUSH1 0x10 DUP2 ADD SWAP1 POP JUMPDEST PUSH4 0x5F5E100 DUP4 LT PUSH2 0x254D JUMPI PUSH4 0x5F5E100 DUP4 DUP2 PUSH2 0x2543 JUMPI PUSH2 0x2542 PUSH2 0x33A7 JUMP JUMPDEST JUMPDEST DIV SWAP3 POP PUSH1 0x8 DUP2 ADD SWAP1 POP JUMPDEST PUSH2 0x2710 DUP4 LT PUSH2 0x2572 JUMPI PUSH2 0x2710 DUP4 DUP2 PUSH2 0x2568 JUMPI PUSH2 0x2567 PUSH2 0x33A7 JUMP JUMPDEST JUMPDEST DIV SWAP3 POP PUSH1 0x4 DUP2 ADD SWAP1 POP JUMPDEST PUSH1 0x64 DUP4 LT PUSH2 0x2595 JUMPI PUSH1 0x64 DUP4 DUP2 PUSH2 0x258B JUMPI PUSH2 0x258A PUSH2 0x33A7 JUMP JUMPDEST JUMPDEST DIV SWAP3 POP PUSH1 0x2 DUP2 ADD SWAP1 POP JUMPDEST PUSH1 0xA DUP4 LT PUSH2 0x25A4 JUMPI PUSH1 0x1 DUP2 ADD SWAP1 POP JUMPDEST DUP1 SWAP2 POP POP SWAP2 SWAP1 POP JUMP JUMPDEST PUSH2 0x25B8 DUP4 DUP4 DUP4 PUSH2 0x2670 JUMP JUMPDEST PUSH2 0x266B JUMPI PUSH0 PUSH20 0xFFFFFFFFFFFFFFFFFFFFFFFFFFFFFFFFFFFFFFFF AND DUP4 PUSH20 0xFFFFFFFFFFFFFFFFFFFFFFFFFFFFFFFFFFFFFFFF AND SUB PUSH2 0x262C JUMPI DUP1 PUSH1 0x40 MLOAD PUSH32 0x7E27328900000000000000000000000000000000000000000000000000000000 DUP2 MSTORE PUSH1 0x4 ADD PUSH2 0x2623 SWAP2 SWAP1 PUSH2 0x291D JUMP JUMPDEST PUSH1 0x40 MLOAD DUP1 SWAP2 SUB SWAP1 REVERT JUMPDEST DUP2 DUP2 PUSH1 0x40 MLOAD PUSH32 0x177E802F00000000000000000000000000000000000000000000000000000000 DUP2 MSTORE PUSH1 0x4 ADD PUSH2 0x2662 SWAP3 SWAP2 SWAP1 PUSH2 0x2F64 JUMP JUMPDEST PUSH1 0x40 MLOAD DUP1 SWAP2 SUB SWAP1 REVERT JUMPDEST POP POP POP JUMP JUMPDEST PUSH0 DUP1 PUSH20 0xFFFFFFFFFFFFFFFFFFFFFFFFFFFFFFFFFFFFFFFF AND DUP4 PUSH20 0xFFFFFFFFFFFFFFFFFFFFFFFFFFFFFFFFFFFFFFFF AND EQ ISZERO DUP1 ISZERO PUSH2 0x2727 JUMPI POP DUP3 PUSH20 0xFFFFFFFFFFFFFFFFFFFFFFFFFFFFFFFFFFFFFFFF AND DUP5 PUSH20 0xFFFFFFFFFFFFFFFFFFFFFFFFFFFFFFFFFFFFFFFF AND EQ DUP1 PUSH2 0x26E8 JUMPI POP PUSH2 0x26E7 DUP5 DUP5 PUSH2 0x1071 JUMP JUMPDEST JUMPDEST DUP1 PUSH2 0x2726 JUMPI POP DUP3 PUSH20 0xFFFFFFFFFFFFFFFFFFFFFFFFFFFFFFFFFFFFFFFF AND PUSH2 0x270E DUP4 PUSH2 0x130A JUMP JUMPDEST PUSH20 0xFFFFFFFFFFFFFFFFFFFFFFFFFFFFFFFFFFFFFFFF AND EQ JUMPDEST JUMPDEST SWAP1 POP SWAP4 SWAP3 POP POP POP JUMP JUMPDEST PUSH1 0x40 MLOAD DUP1 PUSH1 0x80 ADD PUSH1 0x40 MSTORE DUP1 PUSH1 0x4 SWAP1 JUMPDEST PUSH2 0x2747 PUSH2 0x2775 JUMP JUMPDEST DUP2 MSTORE PUSH1 0x20 ADD SWAP1 PUSH1 0x1 SWAP1 SUB SWAP1 DUP2 PUSH2 0x273F JUMPI SWAP1 POP POP SWAP1 JUMP JUMPDEST PUSH1 0x40 MLOAD DUP1 PUSH1 0x40 ADD PUSH1 0x40 MSTORE DUP1 PUSH0 DUP2 MSTORE PUSH1 0x20 ADD PUSH0 DUP2 MSTORE POP SWAP1 JUMP JUMPDEST PUSH1 0x40 MLOAD DUP1 PUSH1 0x80 ADD PUSH1 0x40 MSTORE DUP1 PUSH1 0x4 SWAP1 PUSH1 0x20 DUP3 MUL DUP1 CALLDATASIZE DUP4 CALLDATACOPY DUP1 DUP3 ADD SWAP2 POP POP SWAP1 POP POP SWAP1 JUMP JUMPDEST PUSH0 PUSH1 0x40 MLOAD SWAP1 POP SWAP1 JUMP JUMPDEST PUSH0 DUP1 REVERT JUMPDEST PUSH0 DUP1 REVERT JUMPDEST PUSH0 PUSH32 0xFFFFFFFF00000000000000000000000000000000000000000000000000000000 DUP3 AND SWAP1 POP SWAP2 SWAP1 POP JUMP JUMPDEST PUSH2 0x27DC DUP2 PUSH2 0x27A8 JUMP JUMPDEST DUP2 EQ PUSH2 0x27E6 JUMPI PUSH0 DUP1 REVERT JUMPDEST POP JUMP JUMPDEST PUSH0 DUP2 CALLDATALOAD SWAP1 POP PUSH2 0x27F7 DUP2 PUSH2 0x27D3 JUMP JUMPDEST SWAP3 SWAP2 POP POP JUMP JUMPDEST PUSH0 PUSH1 0x20 DUP3 DUP5 SUB SLT ISZERO PUSH2 0x2812 JUMPI PUSH2 0x2811 PUSH2 0x27A0 JUMP JUMPDEST JUMPDEST PUSH0 PUSH2 0x281F DUP5 DUP3 DUP6 ADD PUSH2 0x27E9 JUMP JUMPDEST SWAP2 POP POP SWAP3 SWAP2 POP POP JUMP JUMPDEST PUSH0 DUP2 ISZERO ISZERO SWAP1 POP SWAP2 SWAP1 POP JUMP JUMPDEST PUSH2 0x283C DUP2 PUSH2 0x2828 JUMP JUMPDEST DUP3 MSTORE POP POP JUMP JUMPDEST PUSH0 PUSH1 0x20 DUP3 ADD SWAP1 POP PUSH2 0x2855 PUSH0 DUP4 ADD DUP5 PUSH2 0x2833 JUMP JUMPDEST SWAP3 SWAP2 POP POP JUMP JUMPDEST PUSH0 DUP2 MLOAD SWAP1 POP SWAP2 SWAP1 POP JUMP JUMPDEST PUSH0 DUP3 DUP3 MSTORE PUSH1 0x20 DUP3 ADD SWAP1 POP SWAP3 SWAP2 POP POP JUMP JUMPDEST PUSH0 JUMPDEST DUP4 DUP2 LT ISZERO PUSH2 0x2892 JUMPI DUP1 DUP3 ADD MLOAD DUP2 DUP5 ADD MSTORE PUSH1 0x20 DUP2 ADD SWAP1 POP PUSH2 0x2877 JUMP JUMPDEST PUSH0 DUP5 DUP5 ADD MSTORE POP POP POP POP JUMP JUMPDEST PUSH0 PUSH1 0x1F NOT PUSH1 0x1F DUP4 ADD AND SWAP1 POP SWAP2 SWAP1 POP JUMP JUMPDEST PUSH0 PUSH2 0x28B7 DUP3 PUSH2 0x285B JUMP JUMPDEST PUSH2 0x28C1 DUP2 DUP6 PUSH2 0x2865 JUMP JUMPDEST SWAP4 POP PUSH2 0x28D1 DUP2 DUP6 PUSH1 0x20 DUP7 ADD PUSH2 0x2875 JUMP JUMPDEST PUSH2 0x28DA DUP2 PUSH2 0x289D JUMP JUMPDEST DUP5 ADD SWAP2 POP POP SWAP3 SWAP2 POP POP JUMP JUMPDEST PUSH0 PUSH1 0x20 DUP3 ADD SWAP1 POP DUP2 DUP2 SUB PUSH0 DUP4 ADD MSTORE PUSH2 0x28FD DUP2 DUP5 PUSH2 0x28AD JUMP JUMPDEST SWAP1 POP SWAP3 SWAP2 POP POP JUMP JUMPDEST PUSH0 DUP2 SWAP1 POP SWAP2 SWAP1 POP JUMP JUMPDEST PUSH2 0x2917 DUP2 PUSH2 0x2905 JUMP JUMPDEST DUP3 MSTORE POP POP JUMP JUMPDEST PUSH0 PUSH1 0x20 DUP3 ADD SWAP1 POP PUSH2 0x2930 PUSH0 DUP4 ADD DUP5 PUSH2 0x290E JUMP JUMPDEST SWAP3 SWAP2 POP POP JUMP JUMPDEST PUSH2 0x293F DUP2 PUSH2 0x2905 JUMP JUMPDEST DUP2 EQ PUSH2 0x2949 JUMPI PUSH0 DUP1 REVERT JUMPDEST POP JUMP JUMPDEST PUSH0 DUP2 CALLDATALOAD SWAP1 POP PUSH2 0x295A DUP2 PUSH2 0x2936 JUMP JUMPDEST SWAP3 SWAP2 POP POP JUMP JUMPDEST PUSH0 PUSH1 0x20 DUP3 DUP5 SUB SLT ISZERO PUSH2 0x2975 JUMPI PUSH2 0x2974 PUSH2 0x27A0 JUMP JUMPDEST JUMPDEST PUSH0 PUSH2 0x2982 DUP5 DUP3 DUP6 ADD PUSH2 0x294C JUMP JUMPDEST SWAP2 POP POP SWAP3 SWAP2 POP POP JUMP JUMPDEST PUSH0 PUSH20 0xFFFFFFFFFFFFFFFFFFFFFFFFFFFFFFFFFFFFFFFF DUP3 AND SWAP1 POP SWAP2 SWAP1 POP JUMP JUMPDEST PUSH0 PUSH2 0x29B4 DUP3 PUSH2 0x298B JUMP JUMPDEST SWAP1 POP SWAP2 SWAP1 POP JUMP JUMPDEST PUSH2 0x29C4 DUP2 PUSH2 0x29AA JUMP JUMPDEST DUP3 MSTORE POP POP JUMP JUMPDEST PUSH0 PUSH1 0x20 DUP3 ADD SWAP1 POP PUSH2 0x29DD PUSH0 DUP4 ADD DUP5 PUSH2 0x29BB JUMP JUMPDEST SWAP3 SWAP2 POP POP JUMP JUMPDEST PUSH2 0x29EC DUP2 PUSH2 0x29AA JUMP JUMPDEST DUP2 EQ PUSH2 0x29F6 JUMPI PUSH0 DUP1 REVERT JUMPDEST POP JUMP JUMPDEST PUSH0 DUP2 CALLDATALOAD SWAP1 POP PUSH2 0x2A07 DUP2 PUSH2 0x29E3 JUMP JUMPDEST SWAP3 SWAP2 POP POP JUMP JUMPDEST PUSH0 DUP1 PUSH1 0x40 DUP4 DUP6 SUB SLT ISZERO PUSH2 0x2A23 JUMPI PUSH2 0x2A22 PUSH2 0x27A0 JUMP JUMPDEST JUMPDEST PUSH0 PUSH2 0x2A30 DUP6 DUP3 DUP7 ADD PUSH2 0x29F9 JUMP JUMPDEST SWAP3 POP POP PUSH1 0x20 PUSH2 0x2A41 DUP6 DUP3 DUP7 ADD PUSH2 0x294C JUMP JUMPDEST SWAP2 POP POP SWAP3 POP SWAP3 SWAP1 POP JUMP JUMPDEST PUSH0 DUP1 PUSH0 PUSH1 0x60 DUP5 DUP7 SUB SLT ISZERO PUSH2 0x2A62 JUMPI PUSH2 0x2A61 PUSH2 0x27A0 JUMP JUMPDEST JUMPDEST PUSH0 PUSH2 0x2A6F DUP7 DUP3 DUP8 ADD PUSH2 0x29F9 JUMP JUMPDEST SWAP4 POP POP PUSH1 0x20 PUSH2 0x2A80 DUP7 DUP3 DUP8 ADD PUSH2 0x29F9 JUMP JUMPDEST SWAP3 POP POP PUSH1 0x40 PUSH2 0x2A91 DUP7 DUP3 DUP8 ADD PUSH2 0x294C JUMP JUMPDEST SWAP2 POP POP SWAP3 POP SWAP3 POP SWAP3 JUMP JUMPDEST PUSH0 PUSH1 0x4 SWAP1 POP SWAP2 SWAP1 POP JUMP JUMPDEST PUSH0 DUP2 SWAP1 POP SWAP3 SWAP2 POP POP JUMP JUMPDEST PUSH0 DUP2 SWAP1 POP SWAP2 SWAP1 POP JUMP JUMPDEST PUSH0 PUSH1 0x4 SWAP1 POP SWAP2 SWAP1 POP JUMP JUMPDEST PUSH0 DUP2 SWAP1 POP SWAP3 SWAP2 POP POP JUMP JUMPDEST PUSH0 DUP2 SWAP1 POP SWAP2 SWAP1 POP JUMP JUMPDEST PUSH2 0x2ADE DUP2 PUSH2 0x2905 JUMP JUMPDEST DUP3 MSTORE POP POP JUMP JUMPDEST PUSH0 PUSH2 0x2AEF DUP4 DUP4 PUSH2 0x2AD5 JUMP JUMPDEST PUSH1 0x20 DUP4 ADD SWAP1 POP SWAP3 SWAP2 POP POP JUMP JUMPDEST PUSH0 PUSH1 0x20 DUP3 ADD SWAP1 POP SWAP2 SWAP1 POP JUMP JUMPDEST PUSH2 0x2B10 DUP2 PUSH2 0x2AB8 JUMP JUMPDEST PUSH2 0x2B1A DUP2 DUP5 PUSH2 0x2AC2 JUMP JUMPDEST SWAP3 POP PUSH2 0x2B25 DUP3 PUSH2 0x2ACC JUMP JUMPDEST DUP1 PUSH0 JUMPDEST DUP4 DUP2 LT ISZERO PUSH2 0x2B55 JUMPI DUP2 MLOAD PUSH2 0x2B3C DUP8 DUP3 PUSH2 0x2AE4 JUMP JUMPDEST SWAP7 POP PUSH2 0x2B47 DUP4 PUSH2 0x2AFB JUMP JUMPDEST SWAP3 POP POP PUSH1 0x1 DUP2 ADD SWAP1 POP PUSH2 0x2B28 JUMP JUMPDEST POP POP POP POP POP POP JUMP JUMPDEST PUSH0 PUSH2 0x2B68 DUP4 DUP4 PUSH2 0x2B07 JUMP JUMPDEST PUSH1 0x80 DUP4 ADD SWAP1 POP SWAP3 SWAP2 POP POP JUMP JUMPDEST PUSH0 PUSH1 0x20 DUP3 ADD SWAP1 POP SWAP2 SWAP1 POP JUMP JUMPDEST PUSH2 0x2B89 DUP2 PUSH2 0x2A9B JUMP JUMPDEST PUSH2 0x2B93 DUP2 DUP5 PUSH2 0x2AA5 JUMP JUMPDEST SWAP3 POP PUSH2 0x2B9E DUP3 PUSH2 0x2AAF JUMP JUMPDEST DUP1 PUSH0 JUMPDEST DUP4 DUP2 LT ISZERO PUSH2 0x2BCE JUMPI DUP2 MLOAD PUSH2 0x2BB5 DUP8 DUP3 PUSH2 0x2B5D JUMP JUMPDEST SWAP7 POP PUSH2 0x2BC0 DUP4 PUSH2 0x2B74 JUMP JUMPDEST SWAP3 POP POP PUSH1 0x1 DUP2 ADD SWAP1 POP PUSH2 0x2BA1 JUMP JUMPDEST POP POP POP POP POP POP JUMP JUMPDEST PUSH0 PUSH2 0x200 DUP3 ADD SWAP1 POP PUSH2 0x2BEA PUSH0 DUP4 ADD DUP5 PUSH2 0x2B80 JUMP JUMPDEST SWAP3 SWAP2 POP POP JUMP JUMPDEST PUSH0 DUP1 PUSH1 0x40 DUP4 DUP6 SUB SLT ISZERO PUSH2 0x2C06 JUMPI PUSH2 0x2C05 PUSH2 0x27A0 JUMP JUMPDEST JUMPDEST PUSH0 PUSH2 0x2C13 DUP6 DUP3 DUP7 ADD PUSH2 0x294C JUMP JUMPDEST SWAP3 POP POP PUSH1 0x20 PUSH2 0x2C24 DUP6 DUP3 DUP7 ADD PUSH2 0x294C JUMP JUMPDEST SWAP2 POP POP SWAP3 POP SWAP3 SWAP1 POP JUMP JUMPDEST PUSH0 PUSH1 0x20 DUP3 DUP5 SUB SLT ISZERO PUSH2 0x2C43 JUMPI PUSH2 0x2C42 PUSH2 0x27A0 JUMP JUMPDEST JUMPDEST PUSH0 PUSH2 0x2C50 DUP5 DUP3 DUP6 ADD PUSH2 0x29F9 JUMP JUMPDEST SWAP2 POP POP SWAP3 SWAP2 POP POP JUMP JUMPDEST PUSH2 0x2C62 DUP2 PUSH2 0x2828 JUMP JUMPDEST DUP2 EQ PUSH2 0x2C6C JUMPI PUSH0 DUP1 REVERT JUMPDEST POP JUMP JUMPDEST PUSH0 DUP2 CALLDATALOAD SWAP1 POP PUSH2 0x2C7D DUP2 PUSH2 0x2C59 JUMP JUMPDEST SWAP3 SWAP2 POP POP JUMP JUMPDEST PUSH0 DUP1 PUSH1 0x40 DUP4 DUP6 SUB SLT ISZERO PUSH2 0x2C99 JUMPI PUSH2 0x2C98 PUSH2 0x27A0 JUMP JUMPDEST JUMPDEST PUSH0 PUSH2 0x2CA6 DUP6 DUP3 DUP7 ADD PUSH2 0x29F9 JUMP JUMPDEST SWAP3 POP POP PUSH1 0x20 PUSH2 0x2CB7 DUP6 DUP3 DUP7 ADD PUSH2 0x2C6F JUMP JUMPDEST SWAP2 POP POP SWAP3 POP SWAP3 SWAP1 POP JUMP JUMPDEST PUSH0 DUP1 REVERT JUMPDEST PUSH0 DUP1 REVERT JUMPDEST PUSH32 0x4E487B7100000000000000000000000000000000000000000000000000000000 PUSH0 MSTORE PUSH1 0x41 PUSH1 0x4 MSTORE PUSH1 0x24 PUSH0 REVERT JUMPDEST PUSH2 0x2CFF DUP3 PUSH2 0x289D JUMP JUMPDEST DUP2 ADD DUP2 DUP2 LT PUSH8 0xFFFFFFFFFFFFFFFF DUP3 GT OR ISZERO PUSH2 0x2D1E JUMPI PUSH2 0x2D1D PUSH2 0x2CC9 JUMP JUMPDEST JUMPDEST DUP1 PUSH1 0x40 MSTORE POP POP POP JUMP JUMPDEST PUSH0 PUSH2 0x2D30 PUSH2 0x2797 JUMP JUMPDEST SWAP1 POP PUSH2 0x2D3C DUP3 DUP3 PUSH2 0x2CF6 JUMP JUMPDEST SWAP2 SWAP1 POP JUMP JUMPDEST PUSH0 PUSH8 0xFFFFFFFFFFFFFFFF DUP3 GT ISZERO PUSH2 0x2D5B JUMPI PUSH2 0x2D5A PUSH2 0x2CC9 JUMP JUMPDEST JUMPDEST PUSH2 0x2D64 DUP3 PUSH2 0x289D JUMP JUMPDEST SWAP1 POP PUSH1 0x20 DUP2 ADD SWAP1 POP SWAP2 SWAP1 POP JUMP JUMPDEST DUP3 DUP2 DUP4 CALLDATACOPY PUSH0 DUP4 DUP4 ADD MSTORE POP POP POP JUMP JUMPDEST PUSH0 PUSH2 0x2D91 PUSH2 0x2D8C DUP5 PUSH2 0x2D41 JUMP JUMPDEST PUSH2 0x2D27 JUMP JUMPDEST SWAP1 POP DUP3 DUP2 MSTORE PUSH1 0x20 DUP2 ADD DUP5 DUP5 DUP5 ADD GT ISZERO PUSH2 0x2DAD JUMPI PUSH2 0x2DAC PUSH2 0x2CC5 JUMP JUMPDEST JUMPDEST PUSH2 0x2DB8 DUP5 DUP3 DUP6 PUSH2 0x2D71 JUMP JUMPDEST POP SWAP4 SWAP3 POP POP POP JUMP JUMPDEST PUSH0 DUP3 PUSH1 0x1F DUP4 ADD SLT PUSH2 0x2DD4 JUMPI PUSH2 0x2DD3 PUSH2 0x2CC1 JUMP JUMPDEST JUMPDEST DUP2 CALLDATALOAD PUSH2 0x2DE4 DUP5 DUP3 PUSH1 0x20 DUP7 ADD PUSH2 0x2D7F JUMP JUMPDEST SWAP2 POP POP SWAP3 SWAP2 POP POP JUMP JUMPDEST PUSH0 DUP1 PUSH0 DUP1 PUSH1 0x80 DUP6 DUP8 SUB SLT ISZERO PUSH2 0x2E05 JUMPI PUSH2 0x2E04 PUSH2 0x27A0 JUMP JUMPDEST JUMPDEST PUSH0 PUSH2 0x2E12 DUP8 DUP3 DUP9 ADD PUSH2 0x29F9 JUMP JUMPDEST SWAP5 POP POP PUSH1 0x20 PUSH2 0x2E23 DUP8 DUP3 DUP9 ADD PUSH2 0x29F9 JUMP JUMPDEST SWAP4 POP POP PUSH1 0x40 PUSH2 0x2E34 DUP8 DUP3 DUP9 ADD PUSH2 0x294C JUMP JUMPDEST SWAP3 POP POP PUSH1 0x60 DUP6 ADD CALLDATALOAD PUSH8 0xFFFFFFFFFFFFFFFF DUP2 GT ISZERO PUSH2 0x2E55 JUMPI PUSH2 0x2E54 PUSH2 0x27A4 JUMP JUMPDEST JUMPDEST PUSH2 0x2E61 DUP8 DUP3 DUP9 ADD PUSH2 0x2DC0 JUMP JUMPDEST SWAP2 POP POP SWAP3 SWAP6 SWAP2 SWAP5 POP SWAP3 POP JUMP JUMPDEST PUSH0 DUP1 PUSH1 0x40 DUP4 DUP6 SUB SLT ISZERO PUSH2 0x2E83 JUMPI PUSH2 0x2E82 PUSH2 0x27A0 JUMP JUMPDEST JUMPDEST PUSH0 PUSH2 0x2E90 DUP6 DUP3 DUP7 ADD PUSH2 0x29F9 JUMP JUMPDEST SWAP3 POP POP PUSH1 0x20 PUSH2 0x2EA1 DUP6 DUP3 DUP7 ADD PUSH2 0x29F9 JUMP JUMPDEST SWAP2 POP POP SWAP3 POP SWAP3 SWAP1 POP JUMP JUMPDEST PUSH0 PUSH1 0x40 DUP3 ADD SWAP1 POP PUSH2 0x2EBE PUSH0 DUP4 ADD DUP6 PUSH2 0x290E JUMP JUMPDEST PUSH2 0x2ECB PUSH1 0x20 DUP4 ADD DUP5 PUSH2 0x290E JUMP JUMPDEST SWAP4 SWAP3 POP POP POP JUMP JUMPDEST PUSH32 0x4E487B7100000000000000000000000000000000000000000000000000000000 PUSH0 MSTORE PUSH1 0x22 PUSH1 0x4 MSTORE PUSH1 0x24 PUSH0 REVERT JUMPDEST PUSH0 PUSH1 0x2 DUP3 DIV SWAP1 POP PUSH1 0x1 DUP3 AND DUP1 PUSH2 0x2F16 JUMPI PUSH1 0x7F DUP3 AND SWAP2 POP JUMPDEST PUSH1 0x20 DUP3 LT DUP2 SUB PUSH2 0x2F29 JUMPI PUSH2 0x2F28 PUSH2 0x2ED2 JUMP JUMPDEST JUMPDEST POP SWAP2 SWAP1 POP JUMP JUMPDEST PUSH0 PUSH1 0x60 DUP3 ADD SWAP1 POP PUSH2 0x2F42 PUSH0 DUP4 ADD DUP7 PUSH2 0x29BB JUMP JUMPDEST PUSH2 0x2F4F PUSH1 0x20 DUP4 ADD DUP6 PUSH2 0x290E JUMP JUMPDEST PUSH2 0x2F5C PUSH1 0x40 DUP4 ADD DUP5 PUSH2 0x29BB JUMP JUMPDEST SWAP5 SWAP4 POP POP POP POP JUMP JUMPDEST PUSH0 PUSH1 0x40 DUP3 ADD SWAP1 POP PUSH2 0x2F77 PUSH0 DUP4 ADD DUP6 PUSH2 0x29BB JUMP JUMPDEST PUSH2 0x2F84 PUSH1 0x20 DUP4 ADD DUP5 PUSH2 0x290E JUMP JUMPDEST SWAP4 SWAP3 POP POP POP JUMP JUMPDEST PUSH32 0x4E487B7100000000000000000000000000000000000000000000000000000000 PUSH0 MSTORE PUSH1 0x32 PUSH1 0x4 MSTORE PUSH1 0x24 PUSH0 REVERT JUMPDEST PUSH0 DUP2 SWAP1 POP SWAP3 SWAP2 POP POP JUMP JUMPDEST PUSH0 DUP2 SWAP1 POP DUP2 PUSH0 MSTORE PUSH1 0x20 PUSH0 KECCAK256 SWAP1 POP SWAP2 SWAP1 POP JUMP JUMPDEST PUSH0 DUP2 SLOAD PUSH2 0x2FE0 DUP2 PUSH2 0x2EFF JUMP JUMPDEST PUSH2 0x2FEA DUP2 DUP7 PUSH2 0x2FB8 JUMP JUMPDEST SWAP5 POP PUSH1 0x1 DUP3 AND PUSH0 DUP2 EQ PUSH2 0x3004 JUMPI PUSH1 0x1 DUP2 EQ PUSH2 0x3019 JUMPI PUSH2 0x304B JUMP JUMPDEST PUSH1 0xFF NOT DUP4 AND DUP7 MSTORE DUP2 ISZERO ISZERO DUP3 MUL DUP7 ADD SWAP4 POP PUSH2 0x304B JUMP JUMPDEST PUSH2 0x3022 DUP6 PUSH2 0x2FC2 JUMP JUMPDEST PUSH0 JUMPDEST DUP4 DUP2 LT ISZERO PUSH2 0x3043 JUMPI DUP2 SLOAD DUP2 DUP10 ADD MSTORE PUSH1 0x1 DUP3 ADD SWAP2 POP PUSH1 0x20 DUP2 ADD SWAP1 POP PUSH2 0x3024 JUMP JUMPDEST DUP4 DUP9 ADD SWAP6 POP POP POP JUMPDEST POP POP POP SWAP3 SWAP2 POP POP JUMP JUMPDEST PUSH32 0x2F00000000000000000000000000000000000000000000000000000000000000 PUSH0 DUP3 ADD MSTORE POP JUMP JUMPDEST PUSH0 PUSH2 0x3088 PUSH1 0x1 DUP4 PUSH2 0x2FB8 JUMP JUMPDEST SWAP2 POP PUSH2 0x3093 DUP3 PUSH2 0x3054 JUMP JUMPDEST PUSH1 0x1 DUP3 ADD SWAP1 POP SWAP2 SWAP1 POP JUMP JUMPDEST PUSH0 PUSH2 0x30A8 DUP3 PUSH2 0x285B JUMP JUMPDEST PUSH2 0x30B2 DUP2 DUP6 PUSH2 0x2FB8 JUMP JUMPDEST SWAP4 POP PUSH2 0x30C2 DUP2 DUP6 PUSH1 0x20 DUP7 ADD PUSH2 0x2875 JUMP JUMPDEST DUP1 DUP5 ADD SWAP2 POP POP SWAP3 SWAP2 POP POP JUMP JUMPDEST PUSH32 0x2E6A736F6E000000000000000000000000000000000000000000000000000000 PUSH0 DUP3 ADD MSTORE POP JUMP JUMPDEST PUSH0 PUSH2 0x3102 PUSH1 0x5 DUP4 PUSH2 0x2FB8 JUMP JUMPDEST SWAP2 POP PUSH2 0x310D DUP3 PUSH2 0x30CE JUMP JUMPDEST PUSH1 0x5 DUP3 ADD SWAP1 POP SWAP2 SWAP1 POP JUMP JUMPDEST PUSH0 PUSH2 0x3123 DUP3 DUP7 PUSH2 0x2FD4 JUMP JUMPDEST SWAP2 POP PUSH2 0x312E DUP3 PUSH2 0x307C JUMP JUMPDEST SWAP2 POP PUSH2 0x313A DUP3 DUP6 PUSH2 0x309E JUMP JUMPDEST SWAP2 POP PUSH2 0x3145 DUP3 PUSH2 0x307C JUMP JUMPDEST SWAP2 POP PUSH2 0x3151 DUP3 DUP5 PUSH2 0x309E JUMP JUMPDEST SWAP2 POP PUSH2 0x315C DUP3 PUSH2 0x30F6 JUMP JUMPDEST SWAP2 POP DUP2 SWAP1 POP SWAP5 SWAP4 POP POP POP POP JUMP JUMPDEST PUSH32 0x4E6F7420656E6F756768204574682E0000000000000000000000000000000000 PUSH0 DUP3 ADD MSTORE POP JUMP JUMPDEST PUSH0 PUSH2 0x319D PUSH1 0xF DUP4 PUSH2 0x2865 JUMP JUMPDEST SWAP2 POP PUSH2 0x31A8 DUP3 PUSH2 0x3169 JUMP JUMPDEST PUSH1 0x20 DUP3 ADD SWAP1 POP SWAP2 SWAP1 POP JUMP JUMPDEST PUSH0 PUSH1 0x20 DUP3 ADD SWAP1 POP DUP2 DUP2 SUB PUSH0 DUP4 ADD MSTORE PUSH2 0x31CA DUP2 PUSH2 0x3191 JUMP JUMPDEST SWAP1 POP SWAP2 SWAP1 POP JUMP JUMPDEST PUSH32 0x4E6F206D6F7265206D696E74696E6720697320706F737369626C652E00000000 PUSH0 DUP3 ADD MSTORE POP JUMP JUMPDEST PUSH0 PUSH2 0x3205 PUSH1 0x1C DUP4 PUSH2 0x2865 JUMP JUMPDEST SWAP2 POP PUSH2 0x3210 DUP3 PUSH2 0x31D1 JUMP JUMPDEST PUSH1 0x20 DUP3 ADD SWAP1 POP SWAP2 SWAP1 POP JUMP JUMPDEST PUSH0 PUSH1 0x20 DUP3 ADD SWAP1 POP DUP2 DUP2 SUB PUSH0 DUP4 ADD MSTORE PUSH2 0x3232 DUP2 PUSH2 0x31F9 JUMP JUMPDEST SWAP1 POP SWAP2 SWAP1 POP JUMP JUMPDEST PUSH32 0x4E487B7100000000000000000000000000000000000000000000000000000000 PUSH0 MSTORE PUSH1 0x11 PUSH1 0x4 MSTORE PUSH1 0x24 PUSH0 REVERT JUMPDEST PUSH0 PUSH2 0x3270 DUP3 PUSH2 0x2905 JUMP JUMPDEST SWAP2 POP PUSH2 0x327B DUP4 PUSH2 0x2905 JUMP JUMPDEST SWAP3 POP DUP3 DUP3 ADD SWAP1 POP DUP1 DUP3 GT ISZERO PUSH2 0x3293 JUMPI PUSH2 0x3292 PUSH2 0x3239 JUMP JUMPDEST JUMPDEST SWAP3 SWAP2 POP POP JUMP JUMPDEST PUSH0 PUSH2 0x32A3 DUP3 PUSH2 0x2905 JUMP JUMPDEST SWAP2 POP PUSH2 0x32AE DUP4 PUSH2 0x2905 JUMP JUMPDEST SWAP3 POP DUP3 DUP3 SUB SWAP1 POP DUP2 DUP2 GT ISZERO PUSH2 0x32C6 JUMPI PUSH2 0x32C5 PUSH2 0x3239 JUMP JUMPDEST JUMPDEST SWAP3 SWAP2 POP POP JUMP JUMPDEST PUSH0 DUP2 MLOAD SWAP1 POP SWAP2 SWAP1 POP JUMP JUMPDEST PUSH0 DUP3 DUP3 MSTORE PUSH1 0x20 DUP3 ADD SWAP1 POP SWAP3 SWAP2 POP POP JUMP JUMPDEST PUSH0 PUSH2 0x32F0 DUP3 PUSH2 0x32CC JUMP JUMPDEST PUSH2 0x32FA DUP2 DUP6 PUSH2 0x32D6 JUMP JUMPDEST SWAP4 POP PUSH2 0x330A DUP2 DUP6 PUSH1 0x20 DUP7 ADD PUSH2 0x2875 JUMP JUMPDEST PUSH2 0x3313 DUP2 PUSH2 0x289D JUMP JUMPDEST DUP5 ADD SWAP2 POP POP SWAP3 SWAP2 POP POP JUMP JUMPDEST PUSH0 PUSH1 0x80 DUP3 ADD SWAP1 POP PUSH2 0x3331 PUSH0 DUP4 ADD DUP8 PUSH2 0x29BB JUMP JUMPDEST PUSH2 0x333E PUSH1 0x20 DUP4 ADD DUP7 PUSH2 0x29BB JUMP JUMPDEST PUSH2 0x334B PUSH1 0x40 DUP4 ADD DUP6 PUSH2 0x290E JUMP JUMPDEST DUP2 DUP2 SUB PUSH1 0x60 DUP4 ADD MSTORE PUSH2 0x335D DUP2 DUP5 PUSH2 0x32E6 JUMP JUMPDEST SWAP1 POP SWAP6 SWAP5 POP POP POP POP POP JUMP JUMPDEST PUSH0 DUP2 MLOAD SWAP1 POP PUSH2 0x3376 DUP2 PUSH2 0x27D3 JUMP JUMPDEST SWAP3 SWAP2 POP POP JUMP JUMPDEST PUSH0 PUSH1 0x20 DUP3 DUP5 SUB SLT ISZERO PUSH2 0x3391 JUMPI PUSH2 0x3390 PUSH2 0x27A0 JUMP JUMPDEST JUMPDEST PUSH0 PUSH2 0x339E DUP5 DUP3 DUP6 ADD PUSH2 0x3368 JUMP JUMPDEST SWAP2 POP POP SWAP3 SWAP2 POP POP JUMP JUMPDEST PUSH32 0x4E487B7100000000000000000000000000000000000000000000000000000000 PUSH0 MSTORE PUSH1 0x12 PUSH1 0x4 MSTORE PUSH1 0x24 PUSH0 REVERT JUMPDEST PUSH0 DUP2 SWAP1 POP SWAP2 SWAP1 POP JUMP JUMPDEST PUSH0 DUP2 SWAP1 POP SWAP2 SWAP1 POP JUMP JUMPDEST PUSH2 0x33F7 PUSH2 0x33F2 DUP3 PUSH2 0x33D4 JUMP JUMPDEST PUSH2 0x33DD JUMP JUMPDEST DUP3 MSTORE POP POP JUMP JUMPDEST PUSH0 DUP2 PUSH1 0x60 SHL SWAP1 POP SWAP2 SWAP1 POP JUMP JUMPDEST PUSH0 PUSH2 0x3413 DUP3 PUSH2 0x33FD JUMP JUMPDEST SWAP1 POP SWAP2 SWAP1 POP JUMP JUMPDEST PUSH0 PUSH2 0x3424 DUP3 PUSH2 0x3409 JUMP JUMPDEST SWAP1 POP SWAP2 SWAP1 POP JUMP JUMPDEST PUSH2 0x343C PUSH2 0x3437 DUP3 PUSH2 0x29AA JUMP JUMPDEST PUSH2 0x341A JUMP JUMPDEST DUP3 MSTORE POP POP JUMP JUMPDEST PUSH0 DUP2 SWAP1 POP SWAP2 SWAP1 POP JUMP JUMPDEST PUSH2 0x345C PUSH2 0x3457 DUP3 PUSH2 0x2905 JUMP JUMPDEST PUSH2 0x3442 JUMP JUMPDEST DUP3 MSTORE POP POP JUMP JUMPDEST PUSH0 PUSH2 0x346D DUP3 DUP7 PUSH2 0x33E6 JUMP JUMPDEST PUSH1 0x20 DUP3 ADD SWAP2 POP PUSH2 0x347D DUP3 DUP6 PUSH2 0x342B JUMP JUMPDEST PUSH1 0x14 DUP3 ADD SWAP2 POP PUSH2 0x348D DUP3 DUP5 PUSH2 0x344B JUMP JUMPDEST PUSH1 0x20 DUP3 ADD SWAP2 POP DUP2 SWAP1 POP SWAP5 SWAP4 POP POP POP POP JUMP JUMPDEST PUSH0 PUSH2 0x34A8 DUP3 PUSH2 0x2905 JUMP JUMPDEST SWAP2 POP PUSH2 0x34B3 DUP4 PUSH2 0x2905 JUMP JUMPDEST SWAP3 POP DUP3 PUSH2 0x34C3 JUMPI PUSH2 0x34C2 PUSH2 0x33A7 JUMP JUMPDEST JUMPDEST DUP3 DUP3 MOD SWAP1 POP SWAP3 SWAP2 POP POP JUMP JUMPDEST PUSH32 0x4E487B7100000000000000000000000000000000000000000000000000000000 PUSH0 MSTORE PUSH1 0x31 PUSH1 0x4 MSTORE PUSH1 0x24 PUSH0 REVERT INVALID LOG2 PUSH5 0x6970667358 0x22 SLT KECCAK256 0xB2 0xB2 0xAA 0xB3 0x25 0x27 0x22 0xEC PUSH27 0xE4E98142F6A4004CDEB85EED3DE7D833C34DDFA4A4147264736F6C PUSH4 0x43000814 STOP CALLER "
		},
		"gasEstimates": {
			"creation": {
				"codeDepositCost": "2723400",
				"executionCost": "infinite",
				"totalCost": "infinite"
			},
			"external": {
				"MAX_TOKEN_COUNT()": "436",
				"TOKEN_RANK_LENGTH()": "393",
				"TOKEN_TYPE_LENGTH()": "393",
				"approve(address,uint256)": "infinite",
				"balanceOf(address)": "infinite",
				"gemTokenCount(uint256,uint256)": "infinite",
				"gemTokenData(uint256)": "infinite",
				"gemTokenPrice()": "2471",
				"getApproved(uint256)": "infinite",
				"getGemTokenCount()": "infinite",
				"getGemTokenRank(uint256)": "infinite",
				"getGemTokenType(uint256)": "infinite",
				"isApprovedForAll(address,address)": "infinite",
				"metadataURI()": "infinite",
				"mintGemToken()": "infinite",
				"name()": "infinite",
				"owner()": "2582",
				"ownerOf(uint256)": "infinite",
				"renounceOwnership()": "infinite",
				"safeTransferFrom(address,address,uint256)": "infinite",
				"safeTransferFrom(address,address,uint256,bytes)": "infinite",
				"setApprovalForAll(address,bool)": "infinite",
				"supportsInterface(bytes4)": "898",
				"symbol()": "infinite",
				"tokenByIndex(uint256)": "infinite",
				"tokenOfOwnerByIndex(address,uint256)": "infinite",
				"tokenURI(uint256)": "infinite",
				"totalSupply()": "2486",
				"transferFrom(address,address,uint256)": "infinite",
				"transferOwnership(address)": "infinite"
			},
			"internal": {
				"randomGenerator(address,uint256)": "infinite"
			}
		},
		"methodIdentifiers": {
			"MAX_TOKEN_COUNT()": "d0bbb0d7",
			"TOKEN_RANK_LENGTH()": "64eeeb73",
			"TOKEN_TYPE_LENGTH()": "07c7f4eb",
			"approve(address,uint256)": "095ea7b3",
			"balanceOf(address)": "70a08231",
			"gemTokenCount(uint256,uint256)": "33bea36b",
			"gemTokenData(uint256)": "fdef166b",
			"gemTokenPrice()": "0700bfef",
			"getApproved(uint256)": "081812fc",
			"getGemTokenCount()": "3158357f",
			"getGemTokenRank(uint256)": "3c38ba44",
			"getGemTokenType(uint256)": "a3805054",
			"isApprovedForAll(address,address)": "e985e9c5",
			"metadataURI()": "03ee438c",
			"mintGemToken()": "d31cc788",
			"name()": "06fdde03",
			"owner()": "8da5cb5b",
			"ownerOf(uint256)": "6352211e",
			"renounceOwnership()": "715018a6",
			"safeTransferFrom(address,address,uint256)": "42842e0e",
			"safeTransferFrom(address,address,uint256,bytes)": "b88d4fde",
			"setApprovalForAll(address,bool)": "a22cb465",
			"supportsInterface(bytes4)": "01ffc9a7",
			"symbol()": "95d89b41",
			"tokenByIndex(uint256)": "4f6ccce7",
			"tokenOfOwnerByIndex(address,uint256)": "2f745c59",
			"tokenURI(uint256)": "c87b56dd",
			"totalSupply()": "18160ddd",
			"transferFrom(address,address,uint256)": "23b872dd",
			"transferOwnership(address)": "f2fde38b"
		}
	},
	"abi": [
		{
			"inputs": [
				{
					"internalType": "string",
					"name": "_name",
					"type": "string"
				},
				{
					"internalType": "string",
					"name": "_symbol",
					"type": "string"
				},
				{
					"internalType": "string",
					"name": "_metadataURI",
					"type": "string"
				}
			],
			"stateMutability": "nonpayable",
			"type": "constructor"
		},
		{
			"inputs": [],
			"name": "ERC721EnumerableForbiddenBatchMint",
			"type": "error"
		},
		{
			"inputs": [
				{
					"internalType": "address",
					"name": "sender",
					"type": "address"
				},
				{
					"internalType": "uint256",
					"name": "tokenId",
					"type": "uint256"
				},
				{
					"internalType": "address",
					"name": "owner",
					"type": "address"
				}
			],
			"name": "ERC721IncorrectOwner",
			"type": "error"
		},
		{
			"inputs": [
				{
					"internalType": "address",
					"name": "operator",
					"type": "address"
				},
				{
					"internalType": "uint256",
					"name": "tokenId",
					"type": "uint256"
				}
			],
			"name": "ERC721InsufficientApproval",
			"type": "error"
		},
		{
			"inputs": [
				{
					"internalType": "address",
					"name": "approver",
					"type": "address"
				}
			],
			"name": "ERC721InvalidApprover",
			"type": "error"
		},
		{
			"inputs": [
				{
					"internalType": "address",
					"name": "operator",
					"type": "address"
				}
			],
			"name": "ERC721InvalidOperator",
			"type": "error"
		},
		{
			"inputs": [
				{
					"internalType": "address",
					"name": "owner",
					"type": "address"
				}
			],
			"name": "ERC721InvalidOwner",
			"type": "error"
		},
		{
			"inputs": [
				{
					"internalType": "address",
					"name": "receiver",
					"type": "address"
				}
			],
			"name": "ERC721InvalidReceiver",
			"type": "error"
		},
		{
			"inputs": [
				{
					"internalType": "address",
					"name": "sender",
					"type": "address"
				}
			],
			"name": "ERC721InvalidSender",
			"type": "error"
		},
		{
			"inputs": [
				{
					"internalType": "uint256",
					"name": "tokenId",
					"type": "uint256"
				}
			],
			"name": "ERC721NonexistentToken",
			"type": "error"
		},
		{
			"inputs": [
				{
					"internalType": "address",
					"name": "owner",
					"type": "address"
				},
				{
					"internalType": "uint256",
					"name": "index",
					"type": "uint256"
				}
			],
			"name": "ERC721OutOfBoundsIndex",
			"type": "error"
		},
		{
			"inputs": [
				{
					"internalType": "address",
					"name": "owner",
					"type": "address"
				}
			],
			"name": "OwnableInvalidOwner",
			"type": "error"
		},
		{
			"inputs": [
				{
					"internalType": "address",
					"name": "account",
					"type": "address"
				}
			],
			"name": "OwnableUnauthorizedAccount",
			"type": "error"
		},
		{
			"anonymous": false,
			"inputs": [
				{
					"indexed": true,
					"internalType": "address",
					"name": "owner",
					"type": "address"
				},
				{
					"indexed": true,
					"internalType": "address",
					"name": "approved",
					"type": "address"
				},
				{
					"indexed": true,
					"internalType": "uint256",
					"name": "tokenId",
					"type": "uint256"
				}
			],
			"name": "Approval",
			"type": "event"
		},
		{
			"anonymous": false,
			"inputs": [
				{
					"indexed": true,
					"internalType": "address",
					"name": "owner",
					"type": "address"
				},
				{
					"indexed": true,
					"internalType": "address",
					"name": "operator",
					"type": "address"
				},
				{
					"indexed": false,
					"internalType": "bool",
					"name": "approved",
					"type": "bool"
				}
			],
			"name": "ApprovalForAll",
			"type": "event"
		},
		{
			"anonymous": false,
			"inputs": [
				{
					"indexed": false,
					"internalType": "uint256",
					"name": "_fromTokenId",
					"type": "uint256"
				},
				{
					"indexed": false,
					"internalType": "uint256",
					"name": "_toTokenId",
					"type": "uint256"
				}
			],
			"name": "BatchMetadataUpdate",
			"type": "event"
		},
		{
			"anonymous": false,
			"inputs": [
				{
					"indexed": false,
					"internalType": "uint256",
					"name": "_tokenId",
					"type": "uint256"
				}
			],
			"name": "MetadataUpdate",
			"type": "event"
		},
		{
			"anonymous": false,
			"inputs": [
				{
					"indexed": true,
					"internalType": "address",
					"name": "previousOwner",
					"type": "address"
				},
				{
					"indexed": true,
					"internalType": "address",
					"name": "newOwner",
					"type": "address"
				}
			],
			"name": "OwnershipTransferred",
			"type": "event"
		},
		{
			"anonymous": false,
			"inputs": [
				{
					"indexed": true,
					"internalType": "address",
					"name": "from",
					"type": "address"
				},
				{
					"indexed": true,
					"internalType": "address",
					"name": "to",
					"type": "address"
				},
				{
					"indexed": true,
					"internalType": "uint256",
					"name": "tokenId",
					"type": "uint256"
				}
			],
			"name": "Transfer",
			"type": "event"
		},
		{
			"inputs": [],
			"name": "MAX_TOKEN_COUNT",
			"outputs": [
				{
					"internalType": "uint256",
					"name": "",
					"type": "uint256"
				}
			],
			"stateMutability": "view",
			"type": "function"
		},
		{
			"inputs": [],
			"name": "TOKEN_RANK_LENGTH",
			"outputs": [
				{
					"internalType": "uint256",
					"name": "",
					"type": "uint256"
				}
			],
			"stateMutability": "view",
			"type": "function"
		},
		{
			"inputs": [],
			"name": "TOKEN_TYPE_LENGTH",
			"outputs": [
				{
					"internalType": "uint256",
					"name": "",
					"type": "uint256"
				}
			],
			"stateMutability": "view",
			"type": "function"
		},
		{
			"inputs": [
				{
					"internalType": "address",
					"name": "to",
					"type": "address"
				},
				{
					"internalType": "uint256",
					"name": "tokenId",
					"type": "uint256"
				}
			],
			"name": "approve",
			"outputs": [],
			"stateMutability": "nonpayable",
			"type": "function"
		},
		{
			"inputs": [
				{
					"internalType": "address",
					"name": "owner",
					"type": "address"
				}
			],
			"name": "balanceOf",
			"outputs": [
				{
					"internalType": "uint256",
					"name": "",
					"type": "uint256"
				}
			],
			"stateMutability": "view",
			"type": "function"
		},
		{
			"inputs": [
				{
					"internalType": "uint256",
					"name": "",
					"type": "uint256"
				},
				{
					"internalType": "uint256",
					"name": "",
					"type": "uint256"
				}
			],
			"name": "gemTokenCount",
			"outputs": [
				{
					"internalType": "uint256",
					"name": "",
					"type": "uint256"
				}
			],
			"stateMutability": "view",
			"type": "function"
		},
		{
			"inputs": [
				{
					"internalType": "uint256",
					"name": "",
					"type": "uint256"
				}
			],
			"name": "gemTokenData",
			"outputs": [
				{
					"internalType": "uint256",
					"name": "gemTokenRank",
					"type": "uint256"
				},
				{
					"internalType": "uint256",
					"name": "gemTokenType",
					"type": "uint256"
				}
			],
			"stateMutability": "view",
			"type": "function"
		},
		{
			"inputs": [],
			"name": "gemTokenPrice",
			"outputs": [
				{
					"internalType": "uint256",
					"name": "",
					"type": "uint256"
				}
			],
			"stateMutability": "view",
			"type": "function"
		},
		{
			"inputs": [
				{
					"internalType": "uint256",
					"name": "tokenId",
					"type": "uint256"
				}
			],
			"name": "getApproved",
			"outputs": [
				{
					"internalType": "address",
					"name": "",
					"type": "address"
				}
			],
			"stateMutability": "view",
			"type": "function"
		},
		{
			"inputs": [],
			"name": "getGemTokenCount",
			"outputs": [
				{
					"internalType": "uint256[4][4]",
					"name": "",
					"type": "uint256[4][4]"
				}
			],
			"stateMutability": "view",
			"type": "function"
		},
		{
			"inputs": [
				{
					"internalType": "uint256",
					"name": "_tokenId",
					"type": "uint256"
				}
			],
			"name": "getGemTokenRank",
			"outputs": [
				{
					"internalType": "uint256",
					"name": "",
					"type": "uint256"
				}
			],
			"stateMutability": "view",
			"type": "function"
		},
		{
			"inputs": [
				{
					"internalType": "uint256",
					"name": "_tokenId",
					"type": "uint256"
				}
			],
			"name": "getGemTokenType",
			"outputs": [
				{
					"internalType": "uint256",
					"name": "",
					"type": "uint256"
				}
			],
			"stateMutability": "view",
			"type": "function"
		},
		{
			"inputs": [
				{
					"internalType": "address",
					"name": "owner",
					"type": "address"
				},
				{
					"internalType": "address",
					"name": "operator",
					"type": "address"
				}
			],
			"name": "isApprovedForAll",
			"outputs": [
				{
					"internalType": "bool",
					"name": "",
					"type": "bool"
				}
			],
			"stateMutability": "view",
			"type": "function"
		},
		{
			"inputs": [],
			"name": "metadataURI",
			"outputs": [
				{
					"internalType": "string",
					"name": "",
					"type": "string"
				}
			],
			"stateMutability": "view",
			"type": "function"
		},
		{
			"inputs": [],
			"name": "mintGemToken",
			"outputs": [],
			"stateMutability": "payable",
			"type": "function"
		},
		{
			"inputs": [],
			"name": "name",
			"outputs": [
				{
					"internalType": "string",
					"name": "",
					"type": "string"
				}
			],
			"stateMutability": "view",
			"type": "function"
		},
		{
			"inputs": [],
			"name": "owner",
			"outputs": [
				{
					"internalType": "address",
					"name": "",
					"type": "address"
				}
			],
			"stateMutability": "view",
			"type": "function"
		},
		{
			"inputs": [
				{
					"internalType": "uint256",
					"name": "tokenId",
					"type": "uint256"
				}
			],
			"name": "ownerOf",
			"outputs": [
				{
					"internalType": "address",
					"name": "",
					"type": "address"
				}
			],
			"stateMutability": "view",
			"type": "function"
		},
		{
			"inputs": [],
			"name": "renounceOwnership",
			"outputs": [],
			"stateMutability": "nonpayable",
			"type": "function"
		},
		{
			"inputs": [
				{
					"internalType": "address",
					"name": "from",
					"type": "address"
				},
				{
					"internalType": "address",
					"name": "to",
					"type": "address"
				},
				{
					"internalType": "uint256",
					"name": "tokenId",
					"type": "uint256"
				}
			],
			"name": "safeTransferFrom",
			"outputs": [],
			"stateMutability": "nonpayable",
			"type": "function"
		},
		{
			"inputs": [
				{
					"internalType": "address",
					"name": "from",
					"type": "address"
				},
				{
					"internalType": "address",
					"name": "to",
					"type": "address"
				},
				{
					"internalType": "uint256",
					"name": "tokenId",
					"type": "uint256"
				},
				{
					"internalType": "bytes",
					"name": "data",
					"type": "bytes"
				}
			],
			"name": "safeTransferFrom",
			"outputs": [],
			"stateMutability": "nonpayable",
			"type": "function"
		},
		{
			"inputs": [
				{
					"internalType": "address",
					"name": "operator",
					"type": "address"
				},
				{
					"internalType": "bool",
					"name": "approved",
					"type": "bool"
				}
			],
			"name": "setApprovalForAll",
			"outputs": [],
			"stateMutability": "nonpayable",
			"type": "function"
		},
		{
			"inputs": [
				{
					"internalType": "bytes4",
					"name": "interfaceId",
					"type": "bytes4"
				}
			],
			"name": "supportsInterface",
			"outputs": [
				{
					"internalType": "bool",
					"name": "",
					"type": "bool"
				}
			],
			"stateMutability": "view",
			"type": "function"
		},
		{
			"inputs": [],
			"name": "symbol",
			"outputs": [
				{
					"internalType": "string",
					"name": "",
					"type": "string"
				}
			],
			"stateMutability": "view",
			"type": "function"
		},
		{
			"inputs": [
				{
					"internalType": "uint256",
					"name": "index",
					"type": "uint256"
				}
			],
			"name": "tokenByIndex",
			"outputs": [
				{
					"internalType": "uint256",
					"name": "",
					"type": "uint256"
				}
			],
			"stateMutability": "view",
			"type": "function"
		},
		{
			"inputs": [
				{
					"internalType": "address",
					"name": "owner",
					"type": "address"
				},
				{
					"internalType": "uint256",
					"name": "index",
					"type": "uint256"
				}
			],
			"name": "tokenOfOwnerByIndex",
			"outputs": [
				{
					"internalType": "uint256",
					"name": "",
					"type": "uint256"
				}
			],
			"stateMutability": "view",
			"type": "function"
		},
		{
			"inputs": [
				{
					"internalType": "uint256",
					"name": "_tokenId",
					"type": "uint256"
				}
			],
			"name": "tokenURI",
			"outputs": [
				{
					"internalType": "string",
					"name": "",
					"type": "string"
				}
			],
			"stateMutability": "view",
			"type": "function"
		},
		{
			"inputs": [],
			"name": "totalSupply",
			"outputs": [
				{
					"internalType": "uint256",
					"name": "",
					"type": "uint256"
				}
			],
			"stateMutability": "view",
			"type": "function"
		},
		{
			"inputs": [
				{
					"internalType": "address",
					"name": "from",
					"type": "address"
				},
				{
					"internalType": "address",
					"name": "to",
					"type": "address"
				},
				{
					"internalType": "uint256",
					"name": "tokenId",
					"type": "uint256"
				}
			],
			"name": "transferFrom",
			"outputs": [],
			"stateMutability": "nonpayable",
			"type": "function"
		},
		{
			"inputs": [
				{
					"internalType": "address",
					"name": "newOwner",
					"type": "address"
				}
			],
			"name": "transferOwnership",
			"outputs": [],
			"stateMutability": "nonpayable",
			"type": "function"
		}
	]
}